{
  "abi": [
    {
      "inputs": [
        {
          "internalType": "address",
          "name": "_tokenAddress",
          "type": "address"
        }
      ],
      "stateMutability": "nonpayable",
      "type": "constructor"
    },
    {
      "anonymous": false,
      "inputs": [
        {
          "indexed": true,
          "internalType": "address",
          "name": "owner",
          "type": "address"
        },
        {
          "indexed": true,
          "internalType": "address",
          "name": "spender",
          "type": "address"
        },
        {
          "indexed": false,
          "internalType": "uint256",
          "name": "value",
          "type": "uint256"
        }
      ],
      "name": "Approval",
      "type": "event"
    },
    {
      "anonymous": false,
      "inputs": [
        {
          "indexed": true,
          "internalType": "address",
          "name": "from",
          "type": "address"
        },
        {
          "indexed": false,
          "internalType": "bool",
          "name": "status",
          "type": "bool"
        }
      ],
      "name": "BetStatusChanged",
      "type": "event"
    },
    {
      "anonymous": false,
      "inputs": [
        {
          "indexed": true,
          "internalType": "address",
          "name": "from",
          "type": "address"
        },
        {
          "indexed": true,
          "internalType": "address",
          "name": "to",
          "type": "address"
        },
        {
          "indexed": false,
          "internalType": "uint256",
          "name": "value",
          "type": "uint256"
        }
      ],
      "name": "Transfer",
      "type": "event"
    },
    {
      "inputs": [],
      "name": "_token",
      "outputs": [
        {
          "internalType": "contract IERC20",
          "name": "",
          "type": "address"
        }
      ],
      "stateMutability": "view",
      "type": "function"
    },
    {
      "inputs": [
        {
          "internalType": "address",
          "name": "",
          "type": "address"
        }
      ],
      "name": "activeBets",
      "outputs": [
        {
          "internalType": "bool",
          "name": "bet",
          "type": "bool"
        },
        {
          "internalType": "address",
          "name": "player",
          "type": "address"
        },
        {
          "internalType": "uint256",
          "name": "amount",
          "type": "uint256"
        }
      ],
      "stateMutability": "view",
      "type": "function"
    },
    {
      "inputs": [
        {
          "internalType": "address",
          "name": "",
          "type": "address"
        }
      ],
      "name": "bets",
      "outputs": [
        {
          "internalType": "uint256",
          "name": "",
          "type": "uint256"
        }
      ],
      "stateMutability": "view",
      "type": "function"
    },
    {
      "inputs": [
        {
          "internalType": "uint256",
          "name": "_multiplier",
          "type": "uint256"
        }
      ],
      "name": "cashOutFromBet",
      "outputs": [],
      "stateMutability": "nonpayable",
      "type": "function"
    },
    {
      "inputs": [
        {
          "internalType": "uint256",
          "name": "_amount",
          "type": "uint256"
        }
      ],
      "name": "depositToGameReserves",
      "outputs": [],
      "stateMutability": "nonpayable",
      "type": "function"
    },
    {
      "inputs": [
        {
          "internalType": "bool",
          "name": "_active",
          "type": "bool"
        }
      ],
      "name": "gameOver",
      "outputs": [],
      "stateMutability": "nonpayable",
      "type": "function"
    },
    {
      "inputs": [],
      "name": "getAllBets",
      "outputs": [
        {
          "components": [
            {
              "internalType": "bool",
              "name": "bet",
              "type": "bool"
            },
            {
              "internalType": "address",
              "name": "player",
              "type": "address"
            },
            {
              "internalType": "uint256",
              "name": "amount",
              "type": "uint256"
            }
          ],
          "internalType": "struct CrashApp.Player[]",
          "name": "",
          "type": "tuple[]"
        }
      ],
      "stateMutability": "view",
      "type": "function"
    },
    {
      "inputs": [],
      "name": "getAllPlayers",
      "outputs": [
        {
          "internalType": "address[]",
          "name": "",
          "type": "address[]"
        }
      ],
      "stateMutability": "view",
      "type": "function"
    },
    {
      "inputs": [],
      "name": "numberOfBets",
      "outputs": [
        {
          "internalType": "uint256",
          "name": "",
          "type": "uint256"
        }
      ],
      "stateMutability": "view",
      "type": "function"
    },
    {
      "inputs": [],
      "name": "owner",
      "outputs": [
        {
          "internalType": "address",
          "name": "",
          "type": "address"
        }
      ],
      "stateMutability": "view",
      "type": "function"
    },
    {
      "inputs": [
        {
          "internalType": "uint256",
          "name": "_amount",
          "type": "uint256"
        }
      ],
      "name": "placeBet",
      "outputs": [],
      "stateMutability": "nonpayable",
      "type": "function"
    },
    {
      "inputs": [
        {
          "internalType": "uint256",
          "name": "",
          "type": "uint256"
        }
      ],
      "name": "playerAddresses",
      "outputs": [
        {
          "internalType": "address",
          "name": "",
          "type": "address"
        }
      ],
      "stateMutability": "view",
      "type": "function"
    },
    {
      "inputs": [
        {
          "internalType": "uint256",
          "name": "_amount",
          "type": "uint256"
        }
      ],
      "name": "withdrawFromGameResrves",
      "outputs": [],
      "stateMutability": "nonpayable",
      "type": "function"
    }
  ],
  "devdoc": {
    "kind": "dev",
    "methods": {},
    "version": 1
  },
  "evm": {
    "assembly": "    /* \"CrashApp.sol\":19636:24099  contract CrashApp{... */\n  mstore(0x40, 0xa0)\n    /* \"CrashApp.sol\":19747:19748  0 */\n  0x00\n    /* \"CrashApp.sol\":19717:19748  uint256 public numberOfBets = 0 */\n  0x01\n  sstore\n    /* \"CrashApp.sol\":20382:20491  constructor(address _tokenAddress){... */\n  callvalue\n  dup1\n  iszero\n  tag_1\n  jumpi\n  0x00\n  dup1\n  revert\ntag_1:\n  pop\n  mload(0x40)\n  sub(codesize, bytecodeSize)\n  dup1\n  bytecodeSize\n  dup4\n  codecopy\n  dup2\n  add\n  0x40\n  dup2\n  swap1\n  mstore\n  tag_2\n  swap2\n  tag_3\n  jump\t// in\ntag_2:\n  sub(shl(0xa0, 0x01), 0x01)\n    /* \"CrashApp.sol\":20426:20456  _token = IERC20(_tokenAddress) */\n  and\n  0x80\n  mstore\n    /* \"CrashApp.sol\":20466:20471  owner */\n  0x00\n    /* \"CrashApp.sol\":20466:20484  owner = msg.sender */\n  dup1\n  sload\n  not(sub(shl(0xa0, 0x01), 0x01))\n  and\n    /* \"CrashApp.sol\":20474:20484  msg.sender */\n  caller\n    /* \"CrashApp.sol\":20466:20484  owner = msg.sender */\n  or\n  swap1\n  sstore\n    /* \"CrashApp.sol\":19636:24099  contract CrashApp{... */\n  jump(tag_7)\n    /* \"#utility.yul\":14:304   */\ntag_3:\n    /* \"#utility.yul\":84:90   */\n  0x00\n    /* \"#utility.yul\":137:139   */\n  0x20\n    /* \"#utility.yul\":125:134   */\n  dup3\n    /* \"#utility.yul\":116:123   */\n  dup5\n    /* \"#utility.yul\":112:135   */\n  sub\n    /* \"#utility.yul\":108:140   */\n  slt\n    /* \"#utility.yul\":105:157   */\n  iszero\n  tag_9\n  jumpi\n    /* \"#utility.yul\":153:154   */\n  0x00\n    /* \"#utility.yul\":150:151   */\n  dup1\n    /* \"#utility.yul\":143:155   */\n  revert\n    /* \"#utility.yul\":105:157   */\ntag_9:\n    /* \"#utility.yul\":179:195   */\n  dup2\n  mload\n  sub(shl(0xa0, 0x01), 0x01)\n    /* \"#utility.yul\":224:255   */\n  dup2\n  and\n    /* \"#utility.yul\":214:256   */\n  dup2\n  eq\n    /* \"#utility.yul\":204:274   */\n  tag_10\n  jumpi\n    /* \"#utility.yul\":270:271   */\n  0x00\n    /* \"#utility.yul\":267:268   */\n  dup1\n    /* \"#utility.yul\":260:272   */\n  revert\n    /* \"#utility.yul\":204:274   */\ntag_10:\n    /* \"#utility.yul\":293:298   */\n  swap4\n    /* \"#utility.yul\":14:304   */\n  swap3\n  pop\n  pop\n  pop\n  jump\t// out\ntag_7:\n    /* \"CrashApp.sol\":19636:24099  contract CrashApp{... */\n  mload(0x80)\n  codecopy(0x00, dataOffset(sub_0), dataSize(sub_0))\n  0x00\n  assignImmutable(\"0xfd1753e5062fc84b796e3e4549282ff123bc8efd827793b2908817313a959dbe\")\n  return(0x00, dataSize(sub_0))\nstop\n\nsub_0: assembly {\n        /* \"CrashApp.sol\":19636:24099  contract CrashApp{... */\n      mstore(0x40, 0x80)\n      callvalue\n      dup1\n      iszero\n      tag_1\n      jumpi\n      0x00\n      dup1\n      revert\n    tag_1:\n      pop\n      jumpi(tag_2, lt(calldatasize, 0x04))\n      shr(0xe0, calldataload(0x00))\n      dup1\n      0x89a78f1a\n      gt\n      tag_16\n      jumpi\n      dup1\n      0xadc92ac7\n      gt\n      tag_17\n      jumpi\n      dup1\n      0xadc92ac7\n      eq\n      tag_12\n      jumpi\n      dup1\n      0xc90190f4\n      eq\n      tag_13\n      jumpi\n      dup1\n      0xecd0c0c3\n      eq\n      tag_14\n      jumpi\n      dup1\n      0xefa1c482\n      eq\n      tag_15\n      jumpi\n      0x00\n      dup1\n      revert\n    tag_17:\n      dup1\n      0x89a78f1a\n      eq\n      tag_9\n      jumpi\n      dup1\n      0x8da5cb5b\n      eq\n      tag_10\n      jumpi\n      dup1\n      0x8f1071b7\n      eq\n      tag_11\n      jumpi\n      0x00\n      dup1\n      revert\n    tag_16:\n      dup1\n      0x700eae73\n      gt\n      tag_18\n      jumpi\n      dup1\n      0x700eae73\n      eq\n      tag_6\n      jumpi\n      dup1\n      0x7250c2ef\n      eq\n      tag_7\n      jumpi\n      dup1\n      0x7bffdd5e\n      eq\n      tag_8\n      jumpi\n      0x00\n      dup1\n      revert\n    tag_18:\n      dup1\n      0x10fe7c48\n      eq\n      tag_3\n      jumpi\n      dup1\n      0x15c6aee2\n      eq\n      tag_4\n      jumpi\n      dup1\n      0x2ca8c6d3\n      eq\n      tag_5\n      jumpi\n    tag_2:\n      0x00\n      dup1\n      revert\n        /* \"CrashApp.sol\":20497:21272  function placeBet(uint256 _amount) public{... */\n    tag_3:\n      tag_19\n      tag_20\n      calldatasize\n      0x04\n      tag_21\n      jump\t// in\n    tag_20:\n      tag_22\n      jump\t// in\n    tag_19:\n      stop\n        /* \"CrashApp.sol\":19891:19923  address[] public playerAddresses */\n    tag_4:\n      tag_23\n      tag_24\n      calldatasize\n      0x04\n      tag_21\n      jump\t// in\n    tag_24:\n      tag_25\n      jump\t// in\n    tag_23:\n      mload(0x40)\n      sub(shl(0xa0, 0x01), 0x01)\n        /* \"#utility.yul\":363:418   */\n      swap1\n      swap2\n      and\n        /* \"#utility.yul\":345:419   */\n      dup2\n      mstore\n        /* \"#utility.yul\":333:335   */\n      0x20\n        /* \"#utility.yul\":318:336   */\n      add\n        /* \"CrashApp.sol\":19891:19923  address[] public playerAddresses */\n    tag_26:\n      mload(0x40)\n      dup1\n      swap2\n      sub\n      swap1\n      return\n        /* \"CrashApp.sol\":19717:19748  uint256 public numberOfBets = 0 */\n    tag_5:\n      tag_28\n      sload(0x01)\n      dup2\n      jump\n    tag_28:\n      mload(0x40)\n        /* \"#utility.yul\":576:601   */\n      swap1\n      dup2\n      mstore\n        /* \"#utility.yul\":564:566   */\n      0x20\n        /* \"#utility.yul\":549:567   */\n      add\n        /* \"CrashApp.sol\":19717:19748  uint256 public numberOfBets = 0 */\n      tag_26\n        /* \"#utility.yul\":430:607   */\n      jump\n        /* \"CrashApp.sol\":23331:23770  function getAllBets() public view returns (Player[] memory) {... */\n    tag_6:\n      tag_32\n      tag_33\n      jump\t// in\n    tag_32:\n      mload(0x40)\n      tag_26\n      swap2\n      swap1\n      tag_35\n      jump\t// in\n        /* \"CrashApp.sol\":22134:22661  function gameOver(bool _active) public onlyOwner {... */\n    tag_7:\n      tag_19\n      tag_37\n      calldatasize\n      0x04\n      tag_38\n      jump\t// in\n    tag_37:\n      tag_39\n      jump\t// in\n        /* \"CrashApp.sol\":23064:23325  function withdrawFromGameResrves(uint256 _amount) public onlyOwner{... */\n    tag_8:\n      tag_19\n      tag_41\n      calldatasize\n      0x04\n      tag_21\n      jump\t// in\n    tag_41:\n      tag_42\n      jump\t// in\n        /* \"CrashApp.sol\":19754:19793  mapping(address => uint256) public bets */\n    tag_9:\n      tag_28\n      tag_44\n      calldatasize\n      0x04\n      tag_45\n      jump\t// in\n    tag_44:\n      mstore(0x20, 0x02)\n      0x00\n      swap1\n      dup2\n      mstore\n      0x40\n      swap1\n      keccak256\n      sload\n      dup2\n      jump\n        /* \"CrashApp.sol\":19691:19711  address public owner */\n    tag_10:\n      sload(0x00)\n      tag_23\n      swap1\n      sub(shl(0xa0, 0x01), 0x01)\n      and\n      dup2\n      jump\n        /* \"CrashApp.sol\":20000:20044  mapping(address => Player) public activeBets */\n    tag_11:\n      tag_51\n      tag_52\n      calldatasize\n      0x04\n      tag_45\n      jump\t// in\n    tag_52:\n      mstore(0x20, 0x04)\n      0x00\n      swap1\n      dup2\n      mstore\n      0x40\n      swap1\n      keccak256\n      dup1\n      sload\n      0x01\n      swap1\n      swap2\n      add\n      sload\n      0xff\n      dup3\n      and\n      swap2\n      0x0100\n      swap1\n      div\n      sub(shl(0xa0, 0x01), 0x01)\n      and\n      swap1\n      dup4\n      jump\n    tag_51:\n      0x40\n      dup1\n      mload\n        /* \"#utility.yul\":2425:2439   */\n      swap4\n      iszero\n        /* \"#utility.yul\":2418:2440   */\n      iszero\n        /* \"#utility.yul\":2400:2441   */\n      dup5\n      mstore\n      sub(shl(0xa0, 0x01), 0x01)\n        /* \"#utility.yul\":2477:2532   */\n      swap1\n      swap3\n      and\n        /* \"#utility.yul\":2472:2474   */\n      0x20\n        /* \"#utility.yul\":2457:2475   */\n      dup5\n      add\n        /* \"#utility.yul\":2450:2533   */\n      mstore\n        /* \"#utility.yul\":2549:2567   */\n      swap1\n      dup3\n      add\n        /* \"#utility.yul\":2542:2576   */\n      mstore\n        /* \"#utility.yul\":2388:2390   */\n      0x60\n        /* \"#utility.yul\":2373:2391   */\n      add\n        /* \"CrashApp.sol\":20000:20044  mapping(address => Player) public activeBets */\n      tag_26\n        /* \"#utility.yul\":2204:2582   */\n      jump\n        /* \"CrashApp.sol\":22777:23058  function depositToGameReserves(uint256 _amount) public onlyOwner{... */\n    tag_12:\n      tag_19\n      tag_57\n      calldatasize\n      0x04\n      tag_21\n      jump\t// in\n    tag_57:\n      tag_58\n      jump\t// in\n        /* \"CrashApp.sol\":21278:22128  function cashOutFromBet(uint256 _multiplier) public {... */\n    tag_13:\n      tag_19\n      tag_60\n      calldatasize\n      0x04\n      tag_21\n      jump\t// in\n    tag_60:\n      tag_61\n      jump\t// in\n        /* \"CrashApp.sol\":19964:19994  IERC20 public immutable _token */\n    tag_14:\n      tag_23\n      immutable(\"0xfd1753e5062fc84b796e3e4549282ff123bc8efd827793b2908817313a959dbe\")\n      dup2\n      jump\n        /* \"CrashApp.sol\":22667:22770  function getAllPlayers() public view returns (address[] memory) {... */\n    tag_15:\n      tag_66\n      tag_67\n      jump\t// in\n    tag_66:\n      mload(0x40)\n      tag_26\n      swap2\n      swap1\n      tag_69\n      jump\t// in\n        /* \"CrashApp.sol\":20497:21272  function placeBet(uint256 _amount) public{... */\n    tag_22:\n        /* \"CrashApp.sol\":20590:20618  _token.balanceOf(msg.sender) */\n      mload(0x40)\n      shl(0xe0, 0x70a08231)\n      dup2\n      mstore\n        /* \"CrashApp.sol\":20607:20617  msg.sender */\n      caller\n        /* \"CrashApp.sol\":20590:20618  _token.balanceOf(msg.sender) */\n      0x04\n      dup3\n      add\n        /* \"#utility.yul\":345:419   */\n      mstore\n        /* \"CrashApp.sol\":20565:20572  _amount */\n      dup2\n      swap1\n      dup2\n      swap1\n        /* \"CrashApp.sol\":20590:20596  _token */\n      immutable(\"0xfd1753e5062fc84b796e3e4549282ff123bc8efd827793b2908817313a959dbe\")\n      sub(shl(0xa0, 0x01), 0x01)\n        /* \"CrashApp.sol\":20590:20606  _token.balanceOf */\n      and\n      swap1\n      0x70a08231\n      swap1\n        /* \"#utility.yul\":318:336   */\n      0x24\n      add\n        /* \"CrashApp.sol\":20590:20618  _token.balanceOf(msg.sender) */\n      0x20\n      mload(0x40)\n      dup1\n      dup4\n      sub\n      dup2\n      dup7\n      gas\n      staticcall\n      iszero\n      dup1\n      iszero\n      tag_73\n      jumpi\n      returndatasize\n      0x00\n      dup1\n      returndatacopy\n      revert(0x00, returndatasize)\n    tag_73:\n      pop\n      pop\n      pop\n      pop\n      mload(0x40)\n      returndatasize\n      not(0x1f)\n      0x1f\n      dup3\n      add\n      and\n      dup3\n      add\n      dup1\n      0x40\n      mstore\n      pop\n      dup2\n      add\n      swap1\n      tag_74\n      swap2\n      swap1\n      tag_75\n      jump\t// in\n    tag_74:\n        /* \"CrashApp.sol\":20590:20628  _token.balanceOf(msg.sender) >= amount */\n      lt\n      iszero\n        /* \"CrashApp.sol\":20582:20670  require(_token.balanceOf(msg.sender) >= amount, \"Only Bet with tokens you already have\") */\n      tag_76\n      jumpi\n      mload(0x40)\n      shl(0xe5, 0x461bcd)\n      dup2\n      mstore\n        /* \"#utility.yul\":3908:3910   */\n      0x20\n        /* \"CrashApp.sol\":20582:20670  require(_token.balanceOf(msg.sender) >= amount, \"Only Bet with tokens you already have\") */\n      0x04\n      dup3\n      add\n        /* \"#utility.yul\":3890:3911   */\n      mstore\n        /* \"#utility.yul\":3947:3949   */\n      0x25\n        /* \"#utility.yul\":3927:3945   */\n      0x24\n      dup3\n      add\n        /* \"#utility.yul\":3920:3950   */\n      mstore\n        /* \"#utility.yul\":3986:4020   */\n      0x4f6e6c7920426574207769746820746f6b656e7320796f7520616c7265616479\n        /* \"#utility.yul\":3966:3984   */\n      0x44\n      dup3\n      add\n        /* \"#utility.yul\":3959:4021   */\n      mstore\n        /* \"#utility.yul\":4057:4064   */\n      0x2068617665000000000000000000000000000000000000000000000000000000\n        /* \"#utility.yul\":4037:4055   */\n      0x64\n      dup3\n      add\n        /* \"#utility.yul\":4030:4065   */\n      mstore\n        /* \"#utility.yul\":4082:4101   */\n      0x84\n      add\n        /* \"CrashApp.sol\":20582:20670  require(_token.balanceOf(msg.sender) >= amount, \"Only Bet with tokens you already have\") */\n    tag_77:\n      mload(0x40)\n      dup1\n      swap2\n      sub\n      swap1\n      revert\n    tag_76:\n        /* \"CrashApp.sol\":20803:20813  msg.sender */\n      caller\n        /* \"CrashApp.sol\":20768:20789  Player storage player */\n      0x00\n        /* \"CrashApp.sol\":20792:20814  activeBets[msg.sender] */\n      dup2\n      dup2\n      mstore\n        /* \"CrashApp.sol\":20792:20802  activeBets */\n      0x04\n        /* \"CrashApp.sol\":20792:20814  activeBets[msg.sender] */\n      0x20\n      mstore\n      0x40\n      dup2\n      keccak256\n        /* \"CrashApp.sol\":20866:20883  player.bet = true */\n      dup1\n      sload\n        /* \"CrashApp.sol\":20879:20883  true */\n      0x01\n        /* \"CrashApp.sol\":20893:20919  player.player = msg.sender */\n      0xffffffffffffffffffffff000000000000000000000000000000000000000000\n      swap1\n      swap2\n      and\n        /* \"CrashApp.sol\":20866:20883  player.bet = true */\n      0x0100\n        /* \"CrashApp.sol\":20893:20919  player.player = msg.sender */\n      dup6\n      mul\n      or\n      dup2\n      or\n      dup3\n      sstore\n        /* \"CrashApp.sol\":20929:20942  player.amount */\n      dup1\n      dup3\n      add\n        /* \"CrashApp.sol\":20929:20952  player.amount = _amount */\n      dup7\n      swap1\n      sstore\n        /* \"CrashApp.sol\":20963:20978  playerAddresses */\n      0x03\n        /* \"CrashApp.sol\":20963:20995  playerAddresses.push(msg.sender) */\n      dup1\n      sload\n      dup1\n      dup4\n      add\n      dup3\n      sstore\n      swap1\n      dup5\n      mstore\n      0xc2575a0e9e593c00f959f8c92f12db2869c3395a3b0502d05e2516446f71f85b\n      add\n      dup1\n      sload\n      0xffffffffffffffffffffffff0000000000000000000000000000000000000000\n      and\n      swap1\n      swap5\n      or\n      swap1\n      swap4\n      sstore\n        /* \"CrashApp.sol\":21040:21054  numberOfBets++ */\n      dup3\n      sload\n        /* \"CrashApp.sol\":20792:20814  activeBets[msg.sender] */\n      swap1\n      swap3\n        /* \"CrashApp.sol\":21040:21054  numberOfBets++ */\n      swap1\n      swap2\n      tag_80\n      dup4\n      tag_81\n      jump\t// in\n    tag_80:\n      swap1\n      swap2\n      sstore\n      pop\n        /* \"CrashApp.sol\":21115:21174  _token.safeTransferFrom(msg.sender, address(this), _amount) */\n      tag_82\n      swap1\n      pop\n      sub(shl(0xa0, 0x01), 0x01)\n        /* \"CrashApp.sol\":21115:21121  _token */\n      immutable(\"0xfd1753e5062fc84b796e3e4549282ff123bc8efd827793b2908817313a959dbe\")\n        /* \"CrashApp.sol\":21115:21138  _token.safeTransferFrom */\n      and\n        /* \"CrashApp.sol\":21139:21149  msg.sender */\n      caller\n        /* \"CrashApp.sol\":21159:21163  this */\n      address\n        /* \"CrashApp.sol\":21166:21173  _amount */\n      dup7\n        /* \"CrashApp.sol\":21115:21138  _token.safeTransferFrom */\n      tag_83\n        /* \"CrashApp.sol\":21115:21174  _token.safeTransferFrom(msg.sender, address(this), _amount) */\n      jump\t// in\n    tag_82:\n        /* \"CrashApp.sol\":21221:21265  Transfer(msg.sender, address(this), _amount) */\n      mload(0x40)\n        /* \"#utility.yul\":576:601   */\n      dup4\n      dup2\n      mstore\n        /* \"CrashApp.sol\":21250:21254  this */\n      address\n      swap1\n        /* \"CrashApp.sol\":21230:21240  msg.sender */\n      caller\n      swap1\n        /* \"CrashApp.sol\":21221:21265  Transfer(msg.sender, address(this), _amount) */\n      0xddf252ad1be2c89b69c2b068fc378daa952ba7f163c4a11628f55a4df523b3ef\n      swap1\n        /* \"#utility.yul\":564:566   */\n      0x20\n        /* \"#utility.yul\":549:567   */\n      add\n        /* \"CrashApp.sol\":21221:21265  Transfer(msg.sender, address(this), _amount) */\n    tag_84:\n      mload(0x40)\n      dup1\n      swap2\n      sub\n      swap1\n      log3\n        /* \"CrashApp.sol\":20538:21272  {... */\n      pop\n      pop\n        /* \"CrashApp.sol\":20497:21272  function placeBet(uint256 _amount) public{... */\n      pop\n      jump\t// out\n        /* \"CrashApp.sol\":19891:19923  address[] public playerAddresses */\n    tag_25:\n      0x03\n      dup2\n      dup2\n      sload\n      dup2\n      lt\n      tag_85\n      jumpi\n      0x00\n      dup1\n      revert\n    tag_85:\n      0x00\n      swap2\n      dup3\n      mstore\n      0x20\n      swap1\n      swap2\n      keccak256\n      add\n      sload\n      sub(shl(0xa0, 0x01), 0x01)\n      and\n      swap1\n      pop\n      dup2\n      jump\t// out\n        /* \"CrashApp.sol\":23331:23770  function getAllBets() public view returns (Player[] memory) {... */\n    tag_33:\n        /* \"CrashApp.sol\":23374:23389  Player[] memory */\n      0x60\n        /* \"CrashApp.sol\":23401:23424  Player[] memory allBets */\n      0x00\n        /* \"CrashApp.sol\":23440:23452  numberOfBets */\n      sload(0x01)\n        /* \"CrashApp.sol\":23427:23453  new Player[](numberOfBets) */\n      0xffffffffffffffff\n      dup2\n      gt\n      iszero\n      tag_89\n      jumpi\n      tag_89\n      tag_90\n      jump\t// in\n    tag_89:\n      mload(0x40)\n      swap1\n      dup1\n      dup3\n      mstore\n      dup1\n      0x20\n      mul\n      0x20\n      add\n      dup3\n      add\n      0x40\n      mstore\n      dup1\n      iszero\n      tag_91\n      jumpi\n      dup2\n      0x20\n      add\n    tag_92:\n      0x40\n      dup1\n      mload\n      0x60\n      dup2\n      add\n      dup3\n      mstore\n      0x00\n      dup1\n      dup3\n      mstore\n      0x20\n      dup1\n      dup4\n      add\n      dup3\n      swap1\n      mstore\n      swap3\n      dup3\n      add\n      mstore\n      dup3\n      mstore\n      not(0x00)\n      swap1\n      swap3\n      add\n      swap2\n      add\n      dup2\n      tag_92\n      jumpi\n      swap1\n      pop\n    tag_91:\n      pop\n        /* \"CrashApp.sol\":23401:23453  Player[] memory allBets = new Player[](numberOfBets) */\n      swap1\n      pop\n        /* \"CrashApp.sol\":23508:23521  uint256 count */\n      0x00\n        /* \"CrashApp.sol\":23540:23549  uint256 i */\n      dup1\n        /* \"CrashApp.sol\":23535:23731  for (uint256 i = 0; i < numberOfBets; i++) {... */\n    tag_95:\n        /* \"CrashApp.sol\":23559:23571  numberOfBets */\n      sload(0x01)\n        /* \"CrashApp.sol\":23555:23556  i */\n      dup2\n        /* \"CrashApp.sol\":23555:23571  i < numberOfBets */\n      lt\n        /* \"CrashApp.sol\":23535:23731  for (uint256 i = 0; i < numberOfBets; i++) {... */\n      iszero\n      tag_96\n      jumpi\n        /* \"CrashApp.sol\":23607:23617  msg.sender */\n      caller\n        /* \"CrashApp.sol\":23596:23618  activeBets[msg.sender] */\n      0x00\n      swap1\n      dup2\n      mstore\n        /* \"CrashApp.sol\":23596:23606  activeBets */\n      0x04\n        /* \"CrashApp.sol\":23596:23618  activeBets[msg.sender] */\n      0x20\n      mstore\n      0x40\n      swap1\n      keccak256\n        /* \"CrashApp.sol\":23596:23622  activeBets[msg.sender].bet */\n      sload\n      0xff\n      and\n        /* \"CrashApp.sol\":23592:23721  if (activeBets[msg.sender].bet) {... */\n      iszero\n      tag_98\n      jumpi\n        /* \"CrashApp.sol\":23670:23680  msg.sender */\n      caller\n        /* \"CrashApp.sol\":23659:23681  activeBets[msg.sender] */\n      0x00\n      swap1\n      dup2\n      mstore\n        /* \"CrashApp.sol\":23659:23669  activeBets */\n      0x04\n        /* \"CrashApp.sol\":23659:23681  activeBets[msg.sender] */\n      0x20\n      swap1\n      dup2\n      mstore\n      0x40\n      swap2\n      dup3\n      swap1\n      keccak256\n        /* \"CrashApp.sol\":23642:23681  allBets[count] = activeBets[msg.sender] */\n      dup3\n      mload\n      0x60\n      dup2\n      add\n      dup5\n      mstore\n      dup2\n      sload\n      0xff\n      dup2\n      and\n      iszero\n      iszero\n      dup3\n      mstore\n      0x0100\n      swap1\n      div\n      sub(shl(0xa0, 0x01), 0x01)\n      and\n      swap3\n      dup2\n      add\n      swap3\n      swap1\n      swap3\n      mstore\n      0x01\n      add\n      sload\n      swap2\n      dup2\n      add\n      swap2\n      swap1\n      swap2\n      mstore\n        /* \"CrashApp.sol\":23642:23656  allBets[count] */\n      dup4\n      mload\n        /* \"CrashApp.sol\":23642:23649  allBets */\n      dup5\n      swap1\n        /* \"CrashApp.sol\":23650:23655  count */\n      dup5\n      swap1\n        /* \"CrashApp.sol\":23642:23656  allBets[count] */\n      dup2\n      lt\n      tag_100\n      jumpi\n      tag_100\n      tag_101\n      jump\t// in\n    tag_100:\n      0x20\n      mul\n      0x20\n      add\n      add\n        /* \"CrashApp.sol\":23642:23681  allBets[count] = activeBets[msg.sender] */\n      dup2\n      swap1\n      mstore\n      pop\n        /* \"CrashApp.sol\":23699:23706  count++ */\n      dup2\n      dup1\n      tag_102\n      swap1\n      tag_81\n      jump\t// in\n    tag_102:\n      swap3\n      pop\n      pop\n        /* \"CrashApp.sol\":23592:23721  if (activeBets[msg.sender].bet) {... */\n    tag_98:\n        /* \"CrashApp.sol\":23573:23576  i++ */\n      dup1\n      tag_103\n      dup2\n      tag_81\n      jump\t// in\n    tag_103:\n      swap2\n      pop\n      pop\n        /* \"CrashApp.sol\":23535:23731  for (uint256 i = 0; i < numberOfBets; i++) {... */\n      jump(tag_95)\n    tag_96:\n      pop\n        /* \"CrashApp.sol\":23756:23763  allBets */\n      swap1\n      swap3\n        /* \"CrashApp.sol\":23331:23770  function getAllBets() public view returns (Player[] memory) {... */\n      swap2\n      pop\n      pop\n      jump\t// out\n        /* \"CrashApp.sol\":22134:22661  function gameOver(bool _active) public onlyOwner {... */\n    tag_39:\n        /* \"CrashApp.sol\":20313:20318  owner */\n      and(sub(shl(0xa0, 0x01), 0x01), sload(0x00))\n        /* \"CrashApp.sol\":20322:20332  msg.sender */\n      caller\n        /* \"CrashApp.sol\":20313:20332  owner == msg.sender */\n      eq\n        /* \"CrashApp.sol\":20305:20358  require(owner == msg.sender, \"You are not the owner\") */\n      tag_105\n      jumpi\n      mload(0x40)\n      shl(0xe5, 0x461bcd)\n      dup2\n      mstore\n        /* \"#utility.yul\":4850:4852   */\n      0x20\n        /* \"CrashApp.sol\":20305:20358  require(owner == msg.sender, \"You are not the owner\") */\n      0x04\n      dup3\n      add\n        /* \"#utility.yul\":4832:4853   */\n      mstore\n        /* \"#utility.yul\":4889:4891   */\n      0x15\n        /* \"#utility.yul\":4869:4887   */\n      0x24\n      dup3\n      add\n        /* \"#utility.yul\":4862:4892   */\n      mstore\n        /* \"#utility.yul\":4928:4951   */\n      0x596f7520617265206e6f7420746865206f776e65720000000000000000000000\n        /* \"#utility.yul\":4908:4926   */\n      0x44\n      dup3\n      add\n        /* \"#utility.yul\":4901:4952   */\n      mstore\n        /* \"#utility.yul\":4969:4987   */\n      0x64\n      add\n        /* \"CrashApp.sol\":20305:20358  require(owner == msg.sender, \"You are not the owner\") */\n      tag_77\n        /* \"#utility.yul\":4648:4993   */\n      jump\n        /* \"CrashApp.sol\":20305:20358  require(owner == msg.sender, \"You are not the owner\") */\n    tag_105:\n        /* \"CrashApp.sol\":22264:22273  uint256 i */\n      0x00\n        /* \"CrashApp.sol\":22259:22652  for (uint256 i = 0; i < playerAddresses.length; i++) {... */\n    tag_109:\n        /* \"CrashApp.sol\":22283:22298  playerAddresses */\n      0x03\n        /* \"CrashApp.sol\":22283:22305  playerAddresses.length */\n      sload\n        /* \"CrashApp.sol\":22279:22305  i < playerAddresses.length */\n      dup2\n      lt\n        /* \"CrashApp.sol\":22259:22652  for (uint256 i = 0; i < playerAddresses.length; i++) {... */\n      iszero\n      tag_110\n      jumpi\n        /* \"CrashApp.sol\":22326:22340  address player */\n      0x00\n        /* \"CrashApp.sol\":22343:22358  playerAddresses */\n      0x03\n        /* \"CrashApp.sol\":22359:22360  i */\n      dup3\n        /* \"CrashApp.sol\":22343:22361  playerAddresses[i] */\n      dup2\n      sload\n      dup2\n      lt\n      tag_113\n      jumpi\n      tag_113\n      tag_101\n      jump\t// in\n    tag_113:\n      0x00\n      swap2\n      dup3\n      mstore\n      0x20\n      dup1\n      dup4\n      keccak256\n      swap1\n      swap2\n      add\n      sload\n      sub(shl(0xa0, 0x01), 0x01)\n      and\n        /* \"CrashApp.sol\":22379:22397  activeBets[player] */\n      dup1\n      dup4\n      mstore\n        /* \"CrashApp.sol\":22379:22389  activeBets */\n      0x04\n        /* \"CrashApp.sol\":22379:22397  activeBets[player] */\n      swap1\n      swap2\n      mstore\n      0x40\n      swap1\n      swap2\n      keccak256\n        /* \"CrashApp.sol\":22379:22401  activeBets[player].bet */\n      sload\n        /* \"CrashApp.sol\":22343:22361  playerAddresses[i] */\n      swap1\n      swap2\n      pop\n        /* \"CrashApp.sol\":22379:22401  activeBets[player].bet */\n      0xff\n      and\n        /* \"CrashApp.sol\":22379:22413  activeBets[player].bet && !_active */\n      dup1\n      iszero\n      tag_115\n      jumpi\n      pop\n        /* \"CrashApp.sol\":22406:22413  _active */\n      dup3\n        /* \"CrashApp.sol\":22405:22413  !_active */\n      iszero\n        /* \"CrashApp.sol\":22379:22413  activeBets[player].bet && !_active */\n    tag_115:\n        /* \"CrashApp.sol\":22375:22642  if (activeBets[player].bet && !_active) {... */\n      iszero\n      tag_116\n      jumpi\n      sub(shl(0xa0, 0x01), 0x01)\n        /* \"CrashApp.sol\":22433:22451  activeBets[player] */\n      dup2\n      and\n        /* \"CrashApp.sol\":22458:22463  false */\n      0x00\n        /* \"CrashApp.sol\":22433:22451  activeBets[player] */\n      dup2\n      dup2\n      mstore\n        /* \"CrashApp.sol\":22433:22443  activeBets */\n      0x04\n        /* \"CrashApp.sol\":22433:22451  activeBets[player] */\n      0x20\n      swap1\n      dup2\n      mstore\n      0x40\n      dup1\n      dup4\n      keccak256\n        /* \"CrashApp.sol\":22433:22463  activeBets[player].bet = false */\n      dup1\n      sload\n      not(0xff)\n      and\n      dup2\n      sstore\n      0x01\n        /* \"CrashApp.sol\":22481:22506  activeBets[player].amount */\n      swap1\n      dup2\n      add\n        /* \"CrashApp.sol\":22481:22510  activeBets[player].amount = 0 */\n      swap4\n      swap1\n      swap4\n      sstore\n        /* \"CrashApp.sol\":22597:22627  BetStatusChanged(player, true) */\n      mload\n        /* \"#utility.yul\":5138:5179   */\n      swap2\n      dup3\n      mstore\n        /* \"CrashApp.sol\":22597:22627  BetStatusChanged(player, true) */\n      0x7e976ffc13bf9ee844465774d66a9a96742341bc3d134602b1bb702edbad48f6\n      swap2\n        /* \"#utility.yul\":5111:5129   */\n      add\n        /* \"CrashApp.sol\":22597:22627  BetStatusChanged(player, true) */\n      mload(0x40)\n      dup1\n      swap2\n      sub\n      swap1\n      log2\n        /* \"CrashApp.sol\":22375:22642  if (activeBets[player].bet && !_active) {... */\n    tag_116:\n      pop\n        /* \"CrashApp.sol\":22307:22310  i++ */\n      dup1\n      tag_119\n      dup2\n      tag_81\n      jump\t// in\n    tag_119:\n      swap2\n      pop\n      pop\n        /* \"CrashApp.sol\":22259:22652  for (uint256 i = 0; i < playerAddresses.length; i++) {... */\n      jump(tag_109)\n    tag_110:\n      pop\n        /* \"CrashApp.sol\":22134:22661  function gameOver(bool _active) public onlyOwner {... */\n      pop\n      jump\t// out\n        /* \"CrashApp.sol\":23064:23325  function withdrawFromGameResrves(uint256 _amount) public onlyOwner{... */\n    tag_42:\n        /* \"CrashApp.sol\":20313:20318  owner */\n      and(sub(shl(0xa0, 0x01), 0x01), sload(0x00))\n        /* \"CrashApp.sol\":20322:20332  msg.sender */\n      caller\n        /* \"CrashApp.sol\":20313:20332  owner == msg.sender */\n      eq\n        /* \"CrashApp.sol\":20305:20358  require(owner == msg.sender, \"You are not the owner\") */\n      tag_121\n      jumpi\n      mload(0x40)\n      shl(0xe5, 0x461bcd)\n      dup2\n      mstore\n        /* \"#utility.yul\":4850:4852   */\n      0x20\n        /* \"CrashApp.sol\":20305:20358  require(owner == msg.sender, \"You are not the owner\") */\n      0x04\n      dup3\n      add\n        /* \"#utility.yul\":4832:4853   */\n      mstore\n        /* \"#utility.yul\":4889:4891   */\n      0x15\n        /* \"#utility.yul\":4869:4887   */\n      0x24\n      dup3\n      add\n        /* \"#utility.yul\":4862:4892   */\n      mstore\n        /* \"#utility.yul\":4928:4951   */\n      0x596f7520617265206e6f7420746865206f776e65720000000000000000000000\n        /* \"#utility.yul\":4908:4926   */\n      0x44\n      dup3\n      add\n        /* \"#utility.yul\":4901:4952   */\n      mstore\n        /* \"#utility.yul\":4969:4987   */\n      0x64\n      add\n        /* \"CrashApp.sol\":20305:20358  require(owner == msg.sender, \"You are not the owner\") */\n      tag_77\n        /* \"#utility.yul\":4648:4993   */\n      jump\n        /* \"CrashApp.sol\":20305:20358  require(owner == msg.sender, \"You are not the owner\") */\n    tag_121:\n        /* \"CrashApp.sol\":23190:23229  _token.safeTransfer(msg.sender,_amount) */\n      tag_124\n      sub(shl(0xa0, 0x01), 0x01)\n        /* \"CrashApp.sol\":23190:23196  _token */\n      immutable(\"0xfd1753e5062fc84b796e3e4549282ff123bc8efd827793b2908817313a959dbe\")\n        /* \"CrashApp.sol\":23190:23209  _token.safeTransfer */\n      and\n        /* \"CrashApp.sol\":23210:23220  msg.sender */\n      caller\n        /* \"CrashApp.sol\":23221:23228  _amount */\n      dup4\n        /* \"CrashApp.sol\":23190:23209  _token.safeTransfer */\n      tag_125\n        /* \"CrashApp.sol\":23190:23229  _token.safeTransfer(msg.sender,_amount) */\n      jump\t// in\n    tag_124:\n        /* \"CrashApp.sol\":23275:23318  Transfer(address(this), msg.sender,_amount) */\n      mload(0x40)\n        /* \"#utility.yul\":576:601   */\n      dup2\n      dup2\n      mstore\n        /* \"CrashApp.sol\":23299:23309  msg.sender */\n      caller\n      swap1\n        /* \"CrashApp.sol\":23292:23296  this */\n      address\n      swap1\n        /* \"CrashApp.sol\":23275:23318  Transfer(address(this), msg.sender,_amount) */\n      0xddf252ad1be2c89b69c2b068fc378daa952ba7f163c4a11628f55a4df523b3ef\n      swap1\n        /* \"#utility.yul\":564:566   */\n      0x20\n        /* \"#utility.yul\":549:567   */\n      add\n        /* \"CrashApp.sol\":23275:23318  Transfer(address(this), msg.sender,_amount) */\n    tag_126:\n      mload(0x40)\n      dup1\n      swap2\n      sub\n      swap1\n      log3\n        /* \"CrashApp.sol\":23064:23325  function withdrawFromGameResrves(uint256 _amount) public onlyOwner{... */\n      pop\n      jump\t// out\n        /* \"CrashApp.sol\":22777:23058  function depositToGameReserves(uint256 _amount) public onlyOwner{... */\n    tag_58:\n        /* \"CrashApp.sol\":20313:20318  owner */\n      and(sub(shl(0xa0, 0x01), 0x01), sload(0x00))\n        /* \"CrashApp.sol\":20322:20332  msg.sender */\n      caller\n        /* \"CrashApp.sol\":20313:20332  owner == msg.sender */\n      eq\n        /* \"CrashApp.sol\":20305:20358  require(owner == msg.sender, \"You are not the owner\") */\n      tag_128\n      jumpi\n      mload(0x40)\n      shl(0xe5, 0x461bcd)\n      dup2\n      mstore\n        /* \"#utility.yul\":4850:4852   */\n      0x20\n        /* \"CrashApp.sol\":20305:20358  require(owner == msg.sender, \"You are not the owner\") */\n      0x04\n      dup3\n      add\n        /* \"#utility.yul\":4832:4853   */\n      mstore\n        /* \"#utility.yul\":4889:4891   */\n      0x15\n        /* \"#utility.yul\":4869:4887   */\n      0x24\n      dup3\n      add\n        /* \"#utility.yul\":4862:4892   */\n      mstore\n        /* \"#utility.yul\":4928:4951   */\n      0x596f7520617265206e6f7420746865206f776e65720000000000000000000000\n        /* \"#utility.yul\":4908:4926   */\n      0x44\n      dup3\n      add\n        /* \"#utility.yul\":4901:4952   */\n      mstore\n        /* \"#utility.yul\":4969:4987   */\n      0x64\n      add\n        /* \"CrashApp.sol\":20305:20358  require(owner == msg.sender, \"You are not the owner\") */\n      tag_77\n        /* \"#utility.yul\":4648:4993   */\n      jump\n        /* \"CrashApp.sol\":20305:20358  require(owner == msg.sender, \"You are not the owner\") */\n    tag_128:\n        /* \"CrashApp.sol\":22901:22960  _token.safeTransferFrom(msg.sender, address(this), _amount) */\n      tag_131\n      sub(shl(0xa0, 0x01), 0x01)\n        /* \"CrashApp.sol\":22901:22907  _token */\n      immutable(\"0xfd1753e5062fc84b796e3e4549282ff123bc8efd827793b2908817313a959dbe\")\n        /* \"CrashApp.sol\":22901:22924  _token.safeTransferFrom */\n      and\n        /* \"CrashApp.sol\":22925:22935  msg.sender */\n      caller\n        /* \"CrashApp.sol\":22945:22949  this */\n      address\n        /* \"CrashApp.sol\":22952:22959  _amount */\n      dup5\n        /* \"CrashApp.sol\":22901:22924  _token.safeTransferFrom */\n      tag_83\n        /* \"CrashApp.sol\":22901:22960  _token.safeTransferFrom(msg.sender, address(this), _amount) */\n      jump\t// in\n    tag_131:\n        /* \"CrashApp.sol\":23007:23051  Transfer(msg.sender, address(this), _amount) */\n      mload(0x40)\n        /* \"#utility.yul\":576:601   */\n      dup2\n      dup2\n      mstore\n        /* \"CrashApp.sol\":23036:23040  this */\n      address\n      swap1\n        /* \"CrashApp.sol\":23016:23026  msg.sender */\n      caller\n      swap1\n        /* \"CrashApp.sol\":23007:23051  Transfer(msg.sender, address(this), _amount) */\n      0xddf252ad1be2c89b69c2b068fc378daa952ba7f163c4a11628f55a4df523b3ef\n      swap1\n        /* \"#utility.yul\":564:566   */\n      0x20\n        /* \"#utility.yul\":549:567   */\n      add\n        /* \"CrashApp.sol\":23007:23051  Transfer(msg.sender, address(this), _amount) */\n      tag_126\n        /* \"#utility.yul\":430:607   */\n      jump\n        /* \"CrashApp.sol\":21278:22128  function cashOutFromBet(uint256 _multiplier) public {... */\n    tag_61:\n        /* \"CrashApp.sol\":21416:21417  1 */\n      0x01\n        /* \"CrashApp.sol\":21402:21413  _multiplier */\n      dup2\n        /* \"CrashApp.sol\":21402:21417  _multiplier > 1 */\n      gt\n        /* \"CrashApp.sol\":21394:21473  require(_multiplier > 1, \"I think the spaceship crashed before you could jump\") */\n      tag_134\n      jumpi\n      mload(0x40)\n      shl(0xe5, 0x461bcd)\n      dup2\n      mstore\n        /* \"#utility.yul\":5392:5394   */\n      0x20\n        /* \"CrashApp.sol\":21394:21473  require(_multiplier > 1, \"I think the spaceship crashed before you could jump\") */\n      0x04\n      dup3\n      add\n        /* \"#utility.yul\":5374:5395   */\n      mstore\n        /* \"#utility.yul\":5431:5433   */\n      0x33\n        /* \"#utility.yul\":5411:5429   */\n      0x24\n      dup3\n      add\n        /* \"#utility.yul\":5404:5434   */\n      mstore\n        /* \"#utility.yul\":5470:5504   */\n      0x49207468696e6b20746865207370616365736869702063726173686564206265\n        /* \"#utility.yul\":5450:5468   */\n      0x44\n      dup3\n      add\n        /* \"#utility.yul\":5443:5505   */\n      mstore\n        /* \"#utility.yul\":5541:5562   */\n      0x666f726520796f7520636f756c64206a756d7000000000000000000000000000\n        /* \"#utility.yul\":5521:5539   */\n      0x64\n      dup3\n      add\n        /* \"#utility.yul\":5514:5563   */\n      mstore\n        /* \"#utility.yul\":5580:5599   */\n      0x84\n      add\n        /* \"CrashApp.sol\":21394:21473  require(_multiplier > 1, \"I think the spaceship crashed before you could jump\") */\n      tag_77\n        /* \"#utility.yul\":5190:5605   */\n      jump\n        /* \"CrashApp.sol\":21394:21473  require(_multiplier > 1, \"I think the spaceship crashed before you could jump\") */\n    tag_134:\n        /* \"CrashApp.sol\":21503:21513  msg.sender */\n      caller\n        /* \"CrashApp.sol\":21492:21514  activeBets[msg.sender] */\n      0x00\n      swap1\n      dup2\n      mstore\n        /* \"CrashApp.sol\":21492:21502  activeBets */\n      0x04\n        /* \"CrashApp.sol\":21492:21514  activeBets[msg.sender] */\n      0x20\n      mstore\n      0x40\n      swap1\n      keccak256\n        /* \"CrashApp.sol\":21492:21518  activeBets[msg.sender].bet */\n      sload\n      0xff\n      and\n        /* \"CrashApp.sol\":21483:21593  require(!activeBets[msg.sender].bet == false, \"You actually have had to place the bet before you cash out!!!\") */\n      tag_137\n      jumpi\n      mload(0x40)\n      shl(0xe5, 0x461bcd)\n      dup2\n      mstore\n        /* \"#utility.yul\":5812:5814   */\n      0x20\n        /* \"CrashApp.sol\":21483:21593  require(!activeBets[msg.sender].bet == false, \"You actually have had to place the bet before you cash out!!!\") */\n      0x04\n      dup3\n      add\n        /* \"#utility.yul\":5794:5815   */\n      mstore\n        /* \"#utility.yul\":5851:5853   */\n      0x3d\n        /* \"#utility.yul\":5831:5849   */\n      0x24\n      dup3\n      add\n        /* \"#utility.yul\":5824:5854   */\n      mstore\n        /* \"#utility.yul\":5890:5924   */\n      0x596f752061637475616c6c7920686176652068616420746f20706c6163652074\n        /* \"#utility.yul\":5870:5888   */\n      0x44\n      dup3\n      add\n        /* \"#utility.yul\":5863:5925   */\n      mstore\n        /* \"#utility.yul\":5961:5992   */\n      0x686520626574206265666f726520796f752063617368206f7574212121000000\n        /* \"#utility.yul\":5941:5959   */\n      0x64\n      dup3\n      add\n        /* \"#utility.yul\":5934:5993   */\n      mstore\n        /* \"#utility.yul\":6010:6029   */\n      0x84\n      add\n        /* \"CrashApp.sol\":21483:21593  require(!activeBets[msg.sender].bet == false, \"You actually have had to place the bet before you cash out!!!\") */\n      tag_77\n        /* \"#utility.yul\":5610:6035   */\n      jump\n        /* \"CrashApp.sol\":21483:21593  require(!activeBets[msg.sender].bet == false, \"You actually have had to place the bet before you cash out!!!\") */\n    tag_137:\n        /* \"CrashApp.sol\":21689:21699  msg.sender */\n      caller\n        /* \"CrashApp.sol\":21648:21675  Player storage playerPayout */\n      0x00\n        /* \"CrashApp.sol\":21678:21700  activeBets[msg.sender] */\n      dup2\n      dup2\n      mstore\n        /* \"CrashApp.sol\":21678:21688  activeBets */\n      0x04\n        /* \"CrashApp.sol\":21678:21700  activeBets[msg.sender] */\n      0x20\n      mstore\n      0x40\n      dup2\n      keccak256\n      swap2\n        /* \"CrashApp.sol\":21763:21797  getReward(_multiplier, msg.sender) */\n      tag_140\n      swap1\n        /* \"CrashApp.sol\":21773:21784  _multiplier */\n      dup5\n      swap1\n        /* \"CrashApp.sol\":21763:21772  getReward */\n      tag_141\n        /* \"CrashApp.sol\":21763:21797  getReward(_multiplier, msg.sender) */\n      jump\t// in\n    tag_140:\n        /* \"CrashApp.sol\":21745:21797  uint256 rewards = getReward(_multiplier, msg.sender) */\n      swap1\n      pop\n        /* \"CrashApp.sol\":21844:21884  _token.safeTransfer(msg.sender, rewards) */\n      tag_142\n      sub(shl(0xa0, 0x01), 0x01)\n        /* \"CrashApp.sol\":21844:21850  _token */\n      immutable(\"0xfd1753e5062fc84b796e3e4549282ff123bc8efd827793b2908817313a959dbe\")\n        /* \"CrashApp.sol\":21844:21863  _token.safeTransfer */\n      and\n        /* \"CrashApp.sol\":21864:21874  msg.sender */\n      caller\n        /* \"CrashApp.sol\":21745:21797  uint256 rewards = getReward(_multiplier, msg.sender) */\n      dup4\n        /* \"CrashApp.sol\":21844:21863  _token.safeTransfer */\n      tag_125\n        /* \"CrashApp.sol\":21844:21884  _token.safeTransfer(msg.sender, rewards) */\n      jump\t// in\n    tag_142:\n        /* \"CrashApp.sol\":21972:21996  playerPayout.bet = false */\n      dup2\n      sload\n      not(0xff)\n      and\n      dup3\n      sstore\n      0x00\n      0x01\n        /* \"CrashApp.sol\":22006:22025  playerPayout.amount */\n      dup4\n      add\n        /* \"CrashApp.sol\":22006:22029  playerPayout.amount = 0 */\n      sstore\n        /* \"CrashApp.sol\":22076:22119  Transfer(address(this), msg.sender,rewards) */\n      mload(0x40)\n        /* \"#utility.yul\":576:601   */\n      dup2\n      dup2\n      mstore\n        /* \"CrashApp.sol\":22100:22110  msg.sender */\n      caller\n      swap1\n        /* \"CrashApp.sol\":22093:22097  this */\n      address\n      swap1\n        /* \"CrashApp.sol\":22076:22119  Transfer(address(this), msg.sender,rewards) */\n      0xddf252ad1be2c89b69c2b068fc378daa952ba7f163c4a11628f55a4df523b3ef\n      swap1\n        /* \"#utility.yul\":564:566   */\n      0x20\n        /* \"#utility.yul\":549:567   */\n      add\n        /* \"CrashApp.sol\":22076:22119  Transfer(address(this), msg.sender,rewards) */\n      tag_84\n        /* \"#utility.yul\":430:607   */\n      jump\n        /* \"CrashApp.sol\":22667:22770  function getAllPlayers() public view returns (address[] memory) {... */\n    tag_67:\n        /* \"CrashApp.sol\":22713:22729  address[] memory */\n      0x60\n        /* \"CrashApp.sol\":22748:22763  playerAddresses */\n      0x03\n        /* \"CrashApp.sol\":22741:22763  return playerAddresses */\n      dup1\n      sload\n      dup1\n      0x20\n      mul\n      0x20\n      add\n      mload(0x40)\n      swap1\n      dup2\n      add\n      0x40\n      mstore\n      dup1\n      swap3\n      swap2\n      swap1\n      dup2\n      dup2\n      mstore\n      0x20\n      add\n      dup3\n      dup1\n      sload\n      dup1\n      iszero\n      tag_145\n      jumpi\n      0x20\n      mul\n      dup3\n      add\n      swap2\n      swap1\n      0x00\n      mstore\n      keccak256(0x00, 0x20)\n      swap1\n    tag_146:\n      dup2\n      sload\n      sub(shl(0xa0, 0x01), 0x01)\n      and\n      dup2\n      mstore\n      0x01\n      swap1\n      swap2\n      add\n      swap1\n      0x20\n      add\n      dup1\n      dup4\n      gt\n      tag_146\n      jumpi\n    tag_145:\n      pop\n      pop\n      pop\n      pop\n      pop\n      swap1\n      pop\n        /* \"CrashApp.sol\":22667:22770  function getAllPlayers() public view returns (address[] memory) {... */\n      swap1\n      jump\t// out\n        /* \"CrashApp.sol\":14054:14257  function safeTransferFrom(IERC20 token, address from, address to, uint256 value) internal {... */\n    tag_83:\n        /* \"CrashApp.sol\":14181:14249  abi.encodeWithSelector(token.transferFrom.selector, from, to, value) */\n      mload(0x40)\n      sub(shl(0xa0, 0x01), 0x01)\n        /* \"#utility.yul\":6321:6336   */\n      dup1\n      dup6\n      and\n        /* \"CrashApp.sol\":14181:14249  abi.encodeWithSelector(token.transferFrom.selector, from, to, value) */\n      0x24\n      dup4\n      add\n        /* \"#utility.yul\":6303:6337   */\n      mstore\n        /* \"#utility.yul\":6373:6388   */\n      dup4\n      and\n        /* \"#utility.yul\":6353:6371   */\n      0x44\n      dup3\n      add\n        /* \"#utility.yul\":6346:6389   */\n      mstore\n        /* \"#utility.yul\":6405:6423   */\n      0x64\n      dup2\n      add\n        /* \"#utility.yul\":6398:6432   */\n      dup3\n      swap1\n      mstore\n        /* \"CrashApp.sol\":14154:14250  _callOptionalReturn(token, abi.encodeWithSelector(token.transferFrom.selector, from, to, value)) */\n      tag_148\n      swap1\n        /* \"CrashApp.sol\":14174:14179  token */\n      dup6\n      swap1\n      shl(0xe0, 0x23b872dd)\n        /* \"CrashApp.sol\":14204:14231  token.transferFrom.selector */\n      swap1\n        /* \"#utility.yul\":6215:6233   */\n      0x84\n      add\n        /* \"CrashApp.sol\":14181:14249  abi.encodeWithSelector(token.transferFrom.selector, from, to, value) */\n    tag_149:\n      0x40\n      dup1\n      mload\n      not(0x1f)\n      dup2\n      dup5\n      sub\n      add\n      dup2\n      mstore\n      swap2\n      swap1\n      mstore\n      0x20\n      dup2\n      add\n      dup1\n      mload\n      0xffffffffffffffffffffffffffffffffffffffffffffffffffffffff\n      and\n      0xffffffff00000000000000000000000000000000000000000000000000000000\n      swap1\n      swap4\n      and\n      swap3\n      swap1\n      swap3\n      or\n      swap1\n      swap2\n      mstore\n        /* \"CrashApp.sol\":14154:14173  _callOptionalReturn */\n      tag_151\n        /* \"CrashApp.sol\":14154:14250  _callOptionalReturn(token, abi.encodeWithSelector(token.transferFrom.selector, from, to, value)) */\n      jump\t// in\n    tag_148:\n        /* \"CrashApp.sol\":14054:14257  function safeTransferFrom(IERC20 token, address from, address to, uint256 value) internal {... */\n      pop\n      pop\n      pop\n      pop\n      jump\t// out\n        /* \"CrashApp.sol\":13640:13815  function safeTransfer(IERC20 token, address to, uint256 value) internal {... */\n    tag_125:\n        /* \"CrashApp.sol\":13749:13807  abi.encodeWithSelector(token.transfer.selector, to, value) */\n      mload(0x40)\n      sub(shl(0xa0, 0x01), 0x01)\n        /* \"#utility.yul\":6635:6690   */\n      dup4\n      and\n        /* \"CrashApp.sol\":13749:13807  abi.encodeWithSelector(token.transfer.selector, to, value) */\n      0x24\n      dup3\n      add\n        /* \"#utility.yul\":6617:6691   */\n      mstore\n        /* \"#utility.yul\":6707:6725   */\n      0x44\n      dup2\n      add\n        /* \"#utility.yul\":6700:6734   */\n      dup3\n      swap1\n      mstore\n        /* \"CrashApp.sol\":13722:13808  _callOptionalReturn(token, abi.encodeWithSelector(token.transfer.selector, to, value)) */\n      tag_153\n      swap1\n        /* \"CrashApp.sol\":13742:13747  token */\n      dup5\n      swap1\n      shl(0xe0, 0xa9059cbb)\n        /* \"CrashApp.sol\":13772:13795  token.transfer.selector */\n      swap1\n        /* \"#utility.yul\":6590:6608   */\n      0x64\n      add\n        /* \"CrashApp.sol\":13749:13807  abi.encodeWithSelector(token.transfer.selector, to, value) */\n      tag_149\n        /* \"#utility.yul\":6443:6740   */\n      jump\n        /* \"CrashApp.sol\":13722:13808  _callOptionalReturn(token, abi.encodeWithSelector(token.transfer.selector, to, value)) */\n    tag_153:\n        /* \"CrashApp.sol\":13640:13815  function safeTransfer(IERC20 token, address to, uint256 value) internal {... */\n      pop\n      pop\n      pop\n      jump\t// out\n        /* \"CrashApp.sol\":23777:24097  function getReward(uint256 _multiplier, address _player) internal view returns (uint256){... */\n    tag_141:\n      sub(shl(0xa0, 0x01), 0x01)\n        /* \"CrashApp.sol\":23879:23898  activeBets[_player] */\n      dup2\n      and\n        /* \"CrashApp.sol\":23857:23864  uint256 */\n      0x00\n        /* \"CrashApp.sol\":23879:23898  activeBets[_player] */\n      swap1\n      dup2\n      mstore\n        /* \"CrashApp.sol\":23879:23889  activeBets */\n      0x04\n        /* \"CrashApp.sol\":23879:23898  activeBets[_player] */\n      0x20\n      mstore\n      0x40\n      dup2\n      keccak256\n        /* \"CrashApp.sol\":23879:23902  activeBets[_player].bet */\n      sload\n      0xff\n      and\n        /* \"CrashApp.sol\":23875:23936  if(!activeBets[_player].bet){... */\n      tag_157\n      jumpi\n      pop\n        /* \"CrashApp.sol\":23924:23925  0 */\n      0x00\n        /* \"CrashApp.sol\":23917:23925  return 0 */\n      jump(tag_156)\n        /* \"CrashApp.sol\":23875:23936  if(!activeBets[_player].bet){... */\n    tag_157:\n      sub(shl(0xa0, 0x01), 0x01)\n        /* \"CrashApp.sol\":24026:24045  activeBets[_player] */\n      dup3\n      and\n        /* \"CrashApp.sol\":24008:24023  uint256 rewards */\n      0x00\n        /* \"CrashApp.sol\":24026:24045  activeBets[_player] */\n      swap1\n      dup2\n      mstore\n        /* \"CrashApp.sol\":24026:24036  activeBets */\n      0x04\n        /* \"CrashApp.sol\":24026:24045  activeBets[_player] */\n      0x20\n      mstore\n      0x40\n      dup2\n      keccak256\n        /* \"CrashApp.sol\":24026:24052  activeBets[_player].amount */\n      0x01\n      add\n      sload\n        /* \"CrashApp.sol\":24026:24066  activeBets[_player].amount * _multiplier */\n      tag_158\n      swap1\n        /* \"CrashApp.sol\":24055:24066  _multiplier */\n      dup6\n      swap1\n        /* \"CrashApp.sol\":24026:24066  activeBets[_player].amount * _multiplier */\n      tag_159\n      jump\t// in\n    tag_158:\n        /* \"CrashApp.sol\":24008:24066  uint256 rewards = activeBets[_player].amount * _multiplier */\n      swap2\n      pop\n      pop\n        /* \"CrashApp.sol\":23777:24097  function getReward(uint256 _multiplier, address _player) internal view returns (uint256){... */\n    tag_156:\n      swap3\n      swap2\n      pop\n      pop\n      jump\t// out\n        /* \"CrashApp.sol\":17895:18537  function _callOptionalReturn(IERC20 token, bytes memory data) private {... */\n    tag_151:\n        /* \"CrashApp.sol\":18314:18337  bytes memory returndata */\n      0x00\n        /* \"CrashApp.sol\":18340:18409  address(token).functionCall(data, \"SafeERC20: low-level call failed\") */\n      tag_161\n        /* \"CrashApp.sol\":18368:18372  data */\n      dup3\n        /* \"CrashApp.sol\":18340:18409  address(token).functionCall(data, \"SafeERC20: low-level call failed\") */\n      mload(0x40)\n      dup1\n      0x40\n      add\n      0x40\n      mstore\n      dup1\n      0x20\n      dup2\n      mstore\n      0x20\n      add\n      0x5361666545524332303a206c6f772d6c6576656c2063616c6c206661696c6564\n      dup2\n      mstore\n      pop\n        /* \"CrashApp.sol\":18348:18353  token */\n      dup6\n      sub(shl(0xa0, 0x01), 0x01)\n        /* \"CrashApp.sol\":18340:18367  address(token).functionCall */\n      and\n      tag_162\n      swap1\n        /* \"CrashApp.sol\":18340:18409  address(token).functionCall(data, \"SafeERC20: low-level call failed\") */\n      swap3\n      swap2\n      swap1\n      0xffffffff\n      and\n      jump\t// in\n    tag_161:\n        /* \"CrashApp.sol\":18314:18409  bytes memory returndata = address(token).functionCall(data, \"SafeERC20: low-level call failed\") */\n      swap1\n      pop\n        /* \"CrashApp.sol\":18427:18437  returndata */\n      dup1\n        /* \"CrashApp.sol\":18427:18444  returndata.length */\n      mload\n        /* \"CrashApp.sol\":18448:18449  0 */\n      0x00\n        /* \"CrashApp.sol\":18427:18449  returndata.length == 0 */\n      eq\n        /* \"CrashApp.sol\":18427:18483  returndata.length == 0 || abi.decode(returndata, (bool)) */\n      dup1\n      tag_164\n      jumpi\n      pop\n        /* \"CrashApp.sol\":18464:18474  returndata */\n      dup1\n        /* \"CrashApp.sol\":18453:18483  abi.decode(returndata, (bool)) */\n      dup1\n      0x20\n      add\n      swap1\n      mload\n      dup2\n      add\n      swap1\n      tag_164\n      swap2\n      swap1\n      tag_165\n      jump\t// in\n    tag_164:\n        /* \"CrashApp.sol\":18419:18530  require(returndata.length == 0 || abi.decode(returndata, (bool)), \"SafeERC20: ERC20 operation did not succeed\") */\n      tag_153\n      jumpi\n      mload(0x40)\n      shl(0xe5, 0x461bcd)\n      dup2\n      mstore\n        /* \"#utility.yul\":7370:7372   */\n      0x20\n        /* \"CrashApp.sol\":18419:18530  require(returndata.length == 0 || abi.decode(returndata, (bool)), \"SafeERC20: ERC20 operation did not succeed\") */\n      0x04\n      dup3\n      add\n        /* \"#utility.yul\":7352:7373   */\n      mstore\n        /* \"#utility.yul\":7409:7411   */\n      0x2a\n        /* \"#utility.yul\":7389:7407   */\n      0x24\n      dup3\n      add\n        /* \"#utility.yul\":7382:7412   */\n      mstore\n        /* \"#utility.yul\":7448:7482   */\n      0x5361666545524332303a204552433230206f7065726174696f6e20646964206e\n        /* \"#utility.yul\":7428:7446   */\n      0x44\n      dup3\n      add\n        /* \"#utility.yul\":7421:7483   */\n      mstore\n        /* \"#utility.yul\":7519:7531   */\n      0x6f74207375636365656400000000000000000000000000000000000000000000\n        /* \"#utility.yul\":7499:7517   */\n      0x64\n      dup3\n      add\n        /* \"#utility.yul\":7492:7532   */\n      mstore\n        /* \"#utility.yul\":7549:7568   */\n      0x84\n      add\n        /* \"CrashApp.sol\":18419:18530  require(returndata.length == 0 || abi.decode(returndata, (bool)), \"SafeERC20: ERC20 operation did not succeed\") */\n      tag_77\n        /* \"#utility.yul\":7168:7574   */\n      jump\n        /* \"CrashApp.sol\":8142:8365  function functionCall(... */\n    tag_162:\n        /* \"CrashApp.sol\":8275:8287  bytes memory */\n      0x60\n        /* \"CrashApp.sol\":8306:8358  functionCallWithValue(target, data, 0, errorMessage) */\n      tag_170\n        /* \"CrashApp.sol\":8328:8334  target */\n      dup5\n        /* \"CrashApp.sol\":8336:8340  data */\n      dup5\n        /* \"CrashApp.sol\":8342:8343  0 */\n      0x00\n        /* \"CrashApp.sol\":8345:8357  errorMessage */\n      dup6\n        /* \"CrashApp.sol\":8306:8327  functionCallWithValue */\n      tag_171\n        /* \"CrashApp.sol\":8306:8358  functionCallWithValue(target, data, 0, errorMessage) */\n      jump\t// in\n    tag_170:\n        /* \"CrashApp.sol\":8299:8358  return functionCallWithValue(target, data, 0, errorMessage) */\n      swap5\n        /* \"CrashApp.sol\":8142:8365  function functionCall(... */\n      swap4\n      pop\n      pop\n      pop\n      pop\n      jump\t// out\n        /* \"CrashApp.sol\":9199:9645  function functionCallWithValue(... */\n    tag_171:\n        /* \"CrashApp.sol\":9364:9376  bytes memory */\n      0x60\n        /* \"CrashApp.sol\":9421:9426  value */\n      dup3\n        /* \"CrashApp.sol\":9396:9417  address(this).balance */\n      selfbalance\n        /* \"CrashApp.sol\":9396:9426  address(this).balance >= value */\n      lt\n      iszero\n        /* \"CrashApp.sol\":9388:9469  require(address(this).balance >= value, \"Address: insufficient balance for call\") */\n      tag_173\n      jumpi\n      mload(0x40)\n      shl(0xe5, 0x461bcd)\n      dup2\n      mstore\n        /* \"#utility.yul\":7781:7783   */\n      0x20\n        /* \"CrashApp.sol\":9388:9469  require(address(this).balance >= value, \"Address: insufficient balance for call\") */\n      0x04\n      dup3\n      add\n        /* \"#utility.yul\":7763:7784   */\n      mstore\n        /* \"#utility.yul\":7820:7822   */\n      0x26\n        /* \"#utility.yul\":7800:7818   */\n      0x24\n      dup3\n      add\n        /* \"#utility.yul\":7793:7823   */\n      mstore\n        /* \"#utility.yul\":7859:7893   */\n      0x416464726573733a20696e73756666696369656e742062616c616e636520666f\n        /* \"#utility.yul\":7839:7857   */\n      0x44\n      dup3\n      add\n        /* \"#utility.yul\":7832:7894   */\n      mstore\n        /* \"#utility.yul\":7930:7938   */\n      0x722063616c6c0000000000000000000000000000000000000000000000000000\n        /* \"#utility.yul\":7910:7928   */\n      0x64\n      dup3\n      add\n        /* \"#utility.yul\":7903:7939   */\n      mstore\n        /* \"#utility.yul\":7956:7975   */\n      0x84\n      add\n        /* \"CrashApp.sol\":9388:9469  require(address(this).balance >= value, \"Address: insufficient balance for call\") */\n      tag_77\n        /* \"#utility.yul\":7579:7981   */\n      jump\n        /* \"CrashApp.sol\":9388:9469  require(address(this).balance >= value, \"Address: insufficient balance for call\") */\n    tag_173:\n        /* \"CrashApp.sol\":9480:9492  bool success */\n      0x00\n        /* \"CrashApp.sol\":9494:9517  bytes memory returndata */\n      dup1\n        /* \"CrashApp.sol\":9521:9527  target */\n      dup7\n      sub(shl(0xa0, 0x01), 0x01)\n        /* \"CrashApp.sol\":9521:9532  target.call */\n      and\n        /* \"CrashApp.sol\":9540:9545  value */\n      dup6\n        /* \"CrashApp.sol\":9547:9551  data */\n      dup8\n        /* \"CrashApp.sol\":9521:9552  target.call{value: value}(data) */\n      mload(0x40)\n      tag_176\n      swap2\n      swap1\n      tag_177\n      jump\t// in\n    tag_176:\n      0x00\n      mload(0x40)\n      dup1\n      dup4\n      sub\n      dup2\n      dup6\n      dup8\n      gas\n      call\n      swap3\n      pop\n      pop\n      pop\n      returndatasize\n      dup1\n      0x00\n      dup2\n      eq\n      tag_180\n      jumpi\n      mload(0x40)\n      swap2\n      pop\n      and(add(returndatasize, 0x3f), not(0x1f))\n      dup3\n      add\n      0x40\n      mstore\n      returndatasize\n      dup3\n      mstore\n      returndatasize\n      0x00\n      0x20\n      dup5\n      add\n      returndatacopy\n      jump(tag_179)\n    tag_180:\n      0x60\n      swap2\n      pop\n    tag_179:\n      pop\n        /* \"CrashApp.sol\":9479:9552  (bool success, bytes memory returndata) = target.call{value: value}(data) */\n      swap2\n      pop\n      swap2\n      pop\n        /* \"CrashApp.sol\":9569:9638  verifyCallResultFromTarget(target, success, returndata, errorMessage) */\n      tag_181\n        /* \"CrashApp.sol\":9596:9602  target */\n      dup8\n        /* \"CrashApp.sol\":9604:9611  success */\n      dup4\n        /* \"CrashApp.sol\":9613:9623  returndata */\n      dup4\n        /* \"CrashApp.sol\":9625:9637  errorMessage */\n      dup8\n        /* \"CrashApp.sol\":9569:9595  verifyCallResultFromTarget */\n      tag_182\n        /* \"CrashApp.sol\":9569:9638  verifyCallResultFromTarget(target, success, returndata, errorMessage) */\n      jump\t// in\n    tag_181:\n        /* \"CrashApp.sol\":9562:9638  return verifyCallResultFromTarget(target, success, returndata, errorMessage) */\n      swap8\n        /* \"CrashApp.sol\":9199:9645  function functionCallWithValue(... */\n      swap7\n      pop\n      pop\n      pop\n      pop\n      pop\n      pop\n      pop\n      jump\t// out\n        /* \"CrashApp.sol\":11705:12333  function verifyCallResultFromTarget(... */\n    tag_182:\n        /* \"CrashApp.sol\":11885:11897  bytes memory */\n      0x60\n        /* \"CrashApp.sol\":11913:11920  success */\n      dup4\n        /* \"CrashApp.sol\":11909:12327  if (success) {... */\n      iszero\n      tag_184\n      jumpi\n        /* \"CrashApp.sol\":11940:11950  returndata */\n      dup3\n        /* \"CrashApp.sol\":11940:11957  returndata.length */\n      mload\n        /* \"CrashApp.sol\":11961:11962  0 */\n      0x00\n        /* \"CrashApp.sol\":11940:11962  returndata.length == 0 */\n      sub\n        /* \"CrashApp.sol\":11936:12222  if (returndata.length == 0) {... */\n      tag_188\n      jumpi\n      sub(shl(0xa0, 0x01), 0x01)\n        /* \"CrashApp.sol\":5736:5755  account.code.length */\n      dup6\n      and\n      extcodesize\n        /* \"CrashApp.sol\":12147:12207  require(isContract(target), \"Address: call to non-contract\") */\n      tag_188\n      jumpi\n      mload(0x40)\n      shl(0xe5, 0x461bcd)\n      dup2\n      mstore\n        /* \"#utility.yul\":8735:8737   */\n      0x20\n        /* \"CrashApp.sol\":12147:12207  require(isContract(target), \"Address: call to non-contract\") */\n      0x04\n      dup3\n      add\n        /* \"#utility.yul\":8717:8738   */\n      mstore\n        /* \"#utility.yul\":8774:8776   */\n      0x1d\n        /* \"#utility.yul\":8754:8772   */\n      0x24\n      dup3\n      add\n        /* \"#utility.yul\":8747:8777   */\n      mstore\n        /* \"#utility.yul\":8813:8844   */\n      0x416464726573733a2063616c6c20746f206e6f6e2d636f6e7472616374000000\n        /* \"#utility.yul\":8793:8811   */\n      0x44\n      dup3\n      add\n        /* \"#utility.yul\":8786:8845   */\n      mstore\n        /* \"#utility.yul\":8862:8880   */\n      0x64\n      add\n        /* \"CrashApp.sol\":12147:12207  require(isContract(target), \"Address: call to non-contract\") */\n      tag_77\n        /* \"#utility.yul\":8533:8886   */\n      jump\n        /* \"CrashApp.sol\":12147:12207  require(isContract(target), \"Address: call to non-contract\") */\n    tag_188:\n      pop\n        /* \"CrashApp.sol\":12242:12252  returndata */\n      dup2\n        /* \"CrashApp.sol\":12235:12252  return returndata */\n      jump(tag_170)\n        /* \"CrashApp.sol\":11909:12327  if (success) {... */\n    tag_184:\n        /* \"CrashApp.sol\":12283:12316  _revert(returndata, errorMessage) */\n      tag_170\n        /* \"CrashApp.sol\":12291:12301  returndata */\n      dup4\n        /* \"CrashApp.sol\":12303:12315  errorMessage */\n      dup4\n        /* \"CrashApp.sol\":13014:13031  returndata.length */\n      dup2\n      mload\n        /* \"CrashApp.sol\":13014:13035  returndata.length > 0 */\n      iszero\n        /* \"CrashApp.sol\":13010:13389  if (returndata.length > 0) {... */\n      tag_196\n      jumpi\n        /* \"CrashApp.sol\":13242:13252  returndata */\n      dup2\n        /* \"CrashApp.sol\":13236:13253  mload(returndata) */\n      mload\n        /* \"CrashApp.sol\":13298:13313  returndata_size */\n      dup1\n        /* \"CrashApp.sol\":13285:13295  returndata */\n      dup4\n        /* \"CrashApp.sol\":13281:13283  32 */\n      0x20\n        /* \"CrashApp.sol\":13277:13296  add(32, returndata) */\n      add\n        /* \"CrashApp.sol\":13270:13314  revert(add(32, returndata), returndata_size) */\n      revert\n        /* \"CrashApp.sol\":13010:13389  if (returndata.length > 0) {... */\n    tag_196:\n        /* \"CrashApp.sol\":13365:13377  errorMessage */\n      dup1\n        /* \"CrashApp.sol\":13358:13378  revert(errorMessage) */\n      mload(0x40)\n      shl(0xe5, 0x461bcd)\n      dup2\n      mstore\n      0x04\n      add\n      tag_77\n      swap2\n      swap1\n      tag_199\n      jump\t// in\n        /* \"#utility.yul\":14:194   */\n    tag_21:\n        /* \"#utility.yul\":73:79   */\n      0x00\n        /* \"#utility.yul\":126:128   */\n      0x20\n        /* \"#utility.yul\":114:123   */\n      dup3\n        /* \"#utility.yul\":105:112   */\n      dup5\n        /* \"#utility.yul\":101:124   */\n      sub\n        /* \"#utility.yul\":97:129   */\n      slt\n        /* \"#utility.yul\":94:146   */\n      iszero\n      tag_205\n      jumpi\n        /* \"#utility.yul\":142:143   */\n      0x00\n        /* \"#utility.yul\":139:140   */\n      dup1\n        /* \"#utility.yul\":132:144   */\n      revert\n        /* \"#utility.yul\":94:146   */\n    tag_205:\n      pop\n        /* \"#utility.yul\":165:188   */\n      calldataload\n      swap2\n        /* \"#utility.yul\":14:194   */\n      swap1\n      pop\n      jump\t// out\n        /* \"#utility.yul\":612:1516   */\n    tag_35:\n        /* \"#utility.yul\":829:831   */\n      0x20\n        /* \"#utility.yul\":881:902   */\n      dup1\n      dup3\n      mstore\n        /* \"#utility.yul\":951:964   */\n      dup3\n      mload\n        /* \"#utility.yul\":854:872   */\n      dup3\n      dup3\n      add\n        /* \"#utility.yul\":973:995   */\n      dup2\n      swap1\n      mstore\n        /* \"#utility.yul\":800:804   */\n      0x00\n      swap2\n        /* \"#utility.yul\":829:831   */\n      swap1\n        /* \"#utility.yul\":1014:1016   */\n      0x40\n      swap1\n        /* \"#utility.yul\":1032:1050   */\n      dup2\n      dup6\n      add\n      swap1\n        /* \"#utility.yul\":1073:1088   */\n      dup7\n      dup5\n      add\n        /* \"#utility.yul\":800:804   */\n      dup6\n        /* \"#utility.yul\":1116:1490   */\n    tag_209:\n        /* \"#utility.yul\":1130:1136   */\n      dup3\n        /* \"#utility.yul\":1127:1128   */\n      dup2\n        /* \"#utility.yul\":1124:1137   */\n      lt\n        /* \"#utility.yul\":1116:1490   */\n      iszero\n      tag_211\n      jumpi\n        /* \"#utility.yul\":1189:1202   */\n      dup2\n      mload\n        /* \"#utility.yul\":1241:1250   */\n      dup1\n      mload\n        /* \"#utility.yul\":1234:1251   */\n      iszero\n        /* \"#utility.yul\":1227:1252   */\n      iszero\n        /* \"#utility.yul\":1215:1253   */\n      dup6\n      mstore\n        /* \"#utility.yul\":1297:1308   */\n      dup7\n      dup2\n      add\n        /* \"#utility.yul\":1291:1309   */\n      mload\n      sub(shl(0xa0, 0x01), 0x01)\n        /* \"#utility.yul\":1287:1354   */\n      and\n        /* \"#utility.yul\":1273:1285   */\n      dup8\n      dup7\n      add\n        /* \"#utility.yul\":1266:1355   */\n      mstore\n        /* \"#utility.yul\":1395:1406   */\n      dup6\n      add\n        /* \"#utility.yul\":1389:1407   */\n      mload\n        /* \"#utility.yul\":1375:1387   */\n      dup6\n      dup6\n      add\n        /* \"#utility.yul\":1368:1408   */\n      mstore\n        /* \"#utility.yul\":1437:1441   */\n      0x60\n        /* \"#utility.yul\":1428:1442   */\n      swap1\n      swap4\n      add\n      swap3\n        /* \"#utility.yul\":1465:1480   */\n      swap1\n      dup6\n      add\n      swap1\n        /* \"#utility.yul\":1152:1153   */\n      0x01\n        /* \"#utility.yul\":1145:1154   */\n      add\n        /* \"#utility.yul\":1116:1490   */\n      jump(tag_209)\n    tag_211:\n      pop\n        /* \"#utility.yul\":1507:1510   */\n      swap2\n      swap8\n        /* \"#utility.yul\":612:1516   */\n      swap7\n      pop\n      pop\n      pop\n      pop\n      pop\n      pop\n      pop\n      jump\t// out\n        /* \"#utility.yul\":1521:1639   */\n    tag_200:\n        /* \"#utility.yul\":1607:1612   */\n      dup1\n        /* \"#utility.yul\":1600:1613   */\n      iszero\n        /* \"#utility.yul\":1593:1614   */\n      iszero\n        /* \"#utility.yul\":1586:1591   */\n      dup2\n        /* \"#utility.yul\":1583:1615   */\n      eq\n        /* \"#utility.yul\":1573:1633   */\n      tag_213\n      jumpi\n        /* \"#utility.yul\":1629:1630   */\n      0x00\n        /* \"#utility.yul\":1626:1627   */\n      dup1\n        /* \"#utility.yul\":1619:1631   */\n      revert\n        /* \"#utility.yul\":1573:1633   */\n    tag_213:\n        /* \"#utility.yul\":1521:1639   */\n      pop\n      jump\t// out\n        /* \"#utility.yul\":1644:1885   */\n    tag_38:\n        /* \"#utility.yul\":1700:1706   */\n      0x00\n        /* \"#utility.yul\":1753:1755   */\n      0x20\n        /* \"#utility.yul\":1741:1750   */\n      dup3\n        /* \"#utility.yul\":1732:1739   */\n      dup5\n        /* \"#utility.yul\":1728:1751   */\n      sub\n        /* \"#utility.yul\":1724:1756   */\n      slt\n        /* \"#utility.yul\":1721:1773   */\n      iszero\n      tag_215\n      jumpi\n        /* \"#utility.yul\":1769:1770   */\n      0x00\n        /* \"#utility.yul\":1766:1767   */\n      dup1\n        /* \"#utility.yul\":1759:1771   */\n      revert\n        /* \"#utility.yul\":1721:1773   */\n    tag_215:\n        /* \"#utility.yul\":1808:1817   */\n      dup2\n        /* \"#utility.yul\":1795:1818   */\n      calldataload\n        /* \"#utility.yul\":1827:1855   */\n      tag_216\n        /* \"#utility.yul\":1849:1854   */\n      dup2\n        /* \"#utility.yul\":1827:1855   */\n      tag_200\n      jump\t// in\n    tag_216:\n        /* \"#utility.yul\":1874:1879   */\n      swap4\n        /* \"#utility.yul\":1644:1885   */\n      swap3\n      pop\n      pop\n      pop\n      jump\t// out\n        /* \"#utility.yul\":1890:2199   */\n    tag_45:\n        /* \"#utility.yul\":1949:1955   */\n      0x00\n        /* \"#utility.yul\":2002:2004   */\n      0x20\n        /* \"#utility.yul\":1990:1999   */\n      dup3\n        /* \"#utility.yul\":1981:1988   */\n      dup5\n        /* \"#utility.yul\":1977:2000   */\n      sub\n        /* \"#utility.yul\":1973:2005   */\n      slt\n        /* \"#utility.yul\":1970:2022   */\n      iszero\n      tag_218\n      jumpi\n        /* \"#utility.yul\":2018:2019   */\n      0x00\n        /* \"#utility.yul\":2015:2016   */\n      dup1\n        /* \"#utility.yul\":2008:2020   */\n      revert\n        /* \"#utility.yul\":1970:2022   */\n    tag_218:\n        /* \"#utility.yul\":2057:2066   */\n      dup2\n        /* \"#utility.yul\":2044:2067   */\n      calldataload\n      sub(shl(0xa0, 0x01), 0x01)\n        /* \"#utility.yul\":2100:2105   */\n      dup2\n        /* \"#utility.yul\":2096:2150   */\n      and\n        /* \"#utility.yul\":2089:2094   */\n      dup2\n        /* \"#utility.yul\":2086:2151   */\n      eq\n        /* \"#utility.yul\":2076:2169   */\n      tag_216\n      jumpi\n        /* \"#utility.yul\":2165:2166   */\n      0x00\n        /* \"#utility.yul\":2162:2163   */\n      dup1\n        /* \"#utility.yul\":2155:2167   */\n      revert\n        /* \"#utility.yul\":2831:3512   */\n    tag_69:\n        /* \"#utility.yul\":3002:3004   */\n      0x20\n        /* \"#utility.yul\":3054:3075   */\n      dup1\n      dup3\n      mstore\n        /* \"#utility.yul\":3124:3137   */\n      dup3\n      mload\n        /* \"#utility.yul\":3027:3045   */\n      dup3\n      dup3\n      add\n        /* \"#utility.yul\":3146:3168   */\n      dup2\n      swap1\n      mstore\n        /* \"#utility.yul\":2973:2977   */\n      0x00\n      swap2\n        /* \"#utility.yul\":3002:3004   */\n      swap1\n        /* \"#utility.yul\":3225:3240   */\n      dup5\n      dup3\n      add\n      swap1\n        /* \"#utility.yul\":3199:3201   */\n      0x40\n        /* \"#utility.yul\":3184:3202   */\n      dup6\n      add\n      swap1\n        /* \"#utility.yul\":2973:2977   */\n      dup5\n        /* \"#utility.yul\":3268:3486   */\n    tag_223:\n        /* \"#utility.yul\":3282:3288   */\n      dup2\n        /* \"#utility.yul\":3279:3280   */\n      dup2\n        /* \"#utility.yul\":3276:3289   */\n      lt\n        /* \"#utility.yul\":3268:3486   */\n      iszero\n      tag_225\n      jumpi\n        /* \"#utility.yul\":3347:3360   */\n      dup4\n      mload\n      sub(shl(0xa0, 0x01), 0x01)\n        /* \"#utility.yul\":3343:3405   */\n      and\n        /* \"#utility.yul\":3331:3406   */\n      dup4\n      mstore\n        /* \"#utility.yul\":3461:3476   */\n      swap3\n      dup5\n      add\n      swap3\n        /* \"#utility.yul\":3426:3438   */\n      swap2\n      dup5\n      add\n      swap2\n        /* \"#utility.yul\":3304:3305   */\n      0x01\n        /* \"#utility.yul\":3297:3306   */\n      add\n        /* \"#utility.yul\":3268:3486   */\n      jump(tag_223)\n    tag_225:\n      pop\n        /* \"#utility.yul\":3503:3506   */\n      swap1\n      swap7\n        /* \"#utility.yul\":2831:3512   */\n      swap6\n      pop\n      pop\n      pop\n      pop\n      pop\n      pop\n      jump\t// out\n        /* \"#utility.yul\":3517:3701   */\n    tag_75:\n        /* \"#utility.yul\":3587:3593   */\n      0x00\n        /* \"#utility.yul\":3640:3642   */\n      0x20\n        /* \"#utility.yul\":3628:3637   */\n      dup3\n        /* \"#utility.yul\":3619:3626   */\n      dup5\n        /* \"#utility.yul\":3615:3638   */\n      sub\n        /* \"#utility.yul\":3611:3643   */\n      slt\n        /* \"#utility.yul\":3608:3660   */\n      iszero\n      tag_227\n      jumpi\n        /* \"#utility.yul\":3656:3657   */\n      0x00\n        /* \"#utility.yul\":3653:3654   */\n      dup1\n        /* \"#utility.yul\":3646:3658   */\n      revert\n        /* \"#utility.yul\":3608:3660   */\n    tag_227:\n      pop\n        /* \"#utility.yul\":3679:3695   */\n      mload\n      swap2\n        /* \"#utility.yul\":3517:3701   */\n      swap1\n      pop\n      jump\t// out\n        /* \"#utility.yul\":4112:4239   */\n    tag_201:\n        /* \"#utility.yul\":4173:4183   */\n      0x4e487b71\n        /* \"#utility.yul\":4168:4171   */\n      0xe0\n        /* \"#utility.yul\":4164:4184   */\n      shl\n        /* \"#utility.yul\":4161:4162   */\n      0x00\n        /* \"#utility.yul\":4154:4185   */\n      mstore\n        /* \"#utility.yul\":4204:4208   */\n      0x11\n        /* \"#utility.yul\":4201:4202   */\n      0x04\n        /* \"#utility.yul\":4194:4209   */\n      mstore\n        /* \"#utility.yul\":4228:4232   */\n      0x24\n        /* \"#utility.yul\":4225:4226   */\n      0x00\n        /* \"#utility.yul\":4218:4233   */\n      revert\n        /* \"#utility.yul\":4244:4379   */\n    tag_81:\n        /* \"#utility.yul\":4283:4286   */\n      0x00\n        /* \"#utility.yul\":4304:4321   */\n      0x01\n      dup3\n      add\n        /* \"#utility.yul\":4301:4344   */\n      tag_232\n      jumpi\n        /* \"#utility.yul\":4324:4342   */\n      tag_232\n      tag_201\n      jump\t// in\n    tag_232:\n      pop\n        /* \"#utility.yul\":4371:4372   */\n      0x01\n        /* \"#utility.yul\":4360:4373   */\n      add\n      swap1\n        /* \"#utility.yul\":4244:4379   */\n      jump\t// out\n        /* \"#utility.yul\":4384:4511   */\n    tag_90:\n        /* \"#utility.yul\":4445:4455   */\n      0x4e487b71\n        /* \"#utility.yul\":4440:4443   */\n      0xe0\n        /* \"#utility.yul\":4436:4456   */\n      shl\n        /* \"#utility.yul\":4433:4434   */\n      0x00\n        /* \"#utility.yul\":4426:4457   */\n      mstore\n        /* \"#utility.yul\":4476:4480   */\n      0x41\n        /* \"#utility.yul\":4473:4474   */\n      0x04\n        /* \"#utility.yul\":4466:4481   */\n      mstore\n        /* \"#utility.yul\":4500:4504   */\n      0x24\n        /* \"#utility.yul\":4497:4498   */\n      0x00\n        /* \"#utility.yul\":4490:4505   */\n      revert\n        /* \"#utility.yul\":4516:4643   */\n    tag_101:\n        /* \"#utility.yul\":4577:4587   */\n      0x4e487b71\n        /* \"#utility.yul\":4572:4575   */\n      0xe0\n        /* \"#utility.yul\":4568:4588   */\n      shl\n        /* \"#utility.yul\":4565:4566   */\n      0x00\n        /* \"#utility.yul\":4558:4589   */\n      mstore\n        /* \"#utility.yul\":4608:4612   */\n      0x32\n        /* \"#utility.yul\":4605:4606   */\n      0x04\n        /* \"#utility.yul\":4598:4613   */\n      mstore\n        /* \"#utility.yul\":4632:4636   */\n      0x24\n        /* \"#utility.yul\":4629:4630   */\n      0x00\n        /* \"#utility.yul\":4622:4637   */\n      revert\n        /* \"#utility.yul\":6745:6913   */\n    tag_159:\n        /* \"#utility.yul\":6818:6827   */\n      dup1\n      dup3\n      mul\n        /* \"#utility.yul\":6849:6858   */\n      dup2\n      iszero\n        /* \"#utility.yul\":6866:6881   */\n      dup3\n      dup3\n      div\n        /* \"#utility.yul\":6860:6882   */\n      dup5\n      eq\n        /* \"#utility.yul\":6846:6883   */\n      or\n        /* \"#utility.yul\":6836:6907   */\n      tag_156\n      jumpi\n        /* \"#utility.yul\":6887:6905   */\n      tag_156\n      tag_201\n      jump\t// in\n        /* \"#utility.yul\":6918:7163   */\n    tag_165:\n        /* \"#utility.yul\":6985:6991   */\n      0x00\n        /* \"#utility.yul\":7038:7040   */\n      0x20\n        /* \"#utility.yul\":7026:7035   */\n      dup3\n        /* \"#utility.yul\":7017:7024   */\n      dup5\n        /* \"#utility.yul\":7013:7036   */\n      sub\n        /* \"#utility.yul\":7009:7041   */\n      slt\n        /* \"#utility.yul\":7006:7058   */\n      iszero\n      tag_245\n      jumpi\n        /* \"#utility.yul\":7054:7055   */\n      0x00\n        /* \"#utility.yul\":7051:7052   */\n      dup1\n        /* \"#utility.yul\":7044:7056   */\n      revert\n        /* \"#utility.yul\":7006:7058   */\n    tag_245:\n        /* \"#utility.yul\":7086:7095   */\n      dup2\n        /* \"#utility.yul\":7080:7096   */\n      mload\n        /* \"#utility.yul\":7105:7133   */\n      tag_216\n        /* \"#utility.yul\":7127:7132   */\n      dup2\n        /* \"#utility.yul\":7105:7133   */\n      tag_200\n      jump\t// in\n        /* \"#utility.yul\":7986:8236   */\n    tag_202:\n        /* \"#utility.yul\":8071:8072   */\n      0x00\n        /* \"#utility.yul\":8081:8194   */\n    tag_250:\n        /* \"#utility.yul\":8095:8101   */\n      dup4\n        /* \"#utility.yul\":8092:8093   */\n      dup2\n        /* \"#utility.yul\":8089:8102   */\n      lt\n        /* \"#utility.yul\":8081:8194   */\n      iszero\n      tag_252\n      jumpi\n        /* \"#utility.yul\":8171:8182   */\n      dup2\n      dup2\n      add\n        /* \"#utility.yul\":8165:8183   */\n      mload\n        /* \"#utility.yul\":8152:8163   */\n      dup4\n      dup3\n      add\n        /* \"#utility.yul\":8145:8184   */\n      mstore\n        /* \"#utility.yul\":8117:8119   */\n      0x20\n        /* \"#utility.yul\":8110:8120   */\n      add\n        /* \"#utility.yul\":8081:8194   */\n      jump(tag_250)\n    tag_252:\n      pop\n      pop\n        /* \"#utility.yul\":8228:8229   */\n      0x00\n        /* \"#utility.yul\":8210:8226   */\n      swap2\n      add\n        /* \"#utility.yul\":8203:8230   */\n      mstore\n        /* \"#utility.yul\":7986:8236   */\n      jump\t// out\n        /* \"#utility.yul\":8241:8528   */\n    tag_177:\n        /* \"#utility.yul\":8370:8373   */\n      0x00\n        /* \"#utility.yul\":8408:8414   */\n      dup3\n        /* \"#utility.yul\":8402:8415   */\n      mload\n        /* \"#utility.yul\":8424:8490   */\n      tag_254\n        /* \"#utility.yul\":8483:8489   */\n      dup2\n        /* \"#utility.yul\":8478:8481   */\n      dup5\n        /* \"#utility.yul\":8471:8475   */\n      0x20\n        /* \"#utility.yul\":8463:8469   */\n      dup8\n        /* \"#utility.yul\":8459:8476   */\n      add\n        /* \"#utility.yul\":8424:8490   */\n      tag_202\n      jump\t// in\n    tag_254:\n        /* \"#utility.yul\":8506:8522   */\n      swap2\n      swap1\n      swap2\n      add\n      swap3\n        /* \"#utility.yul\":8241:8528   */\n      swap2\n      pop\n      pop\n      jump\t// out\n        /* \"#utility.yul\":8891:9287   */\n    tag_199:\n        /* \"#utility.yul\":9040:9042   */\n      0x20\n        /* \"#utility.yul\":9029:9038   */\n      dup2\n        /* \"#utility.yul\":9022:9043   */\n      mstore\n        /* \"#utility.yul\":9003:9007   */\n      0x00\n        /* \"#utility.yul\":9072:9078   */\n      dup3\n        /* \"#utility.yul\":9066:9079   */\n      mload\n        /* \"#utility.yul\":9115:9121   */\n      dup1\n        /* \"#utility.yul\":9110:9112   */\n      0x20\n        /* \"#utility.yul\":9099:9108   */\n      dup5\n        /* \"#utility.yul\":9095:9113   */\n      add\n        /* \"#utility.yul\":9088:9122   */\n      mstore\n        /* \"#utility.yul\":9131:9210   */\n      tag_257\n        /* \"#utility.yul\":9203:9209   */\n      dup2\n        /* \"#utility.yul\":9198:9200   */\n      0x40\n        /* \"#utility.yul\":9187:9196   */\n      dup6\n        /* \"#utility.yul\":9183:9201   */\n      add\n        /* \"#utility.yul\":9178:9180   */\n      0x20\n        /* \"#utility.yul\":9170:9176   */\n      dup8\n        /* \"#utility.yul\":9166:9181   */\n      add\n        /* \"#utility.yul\":9131:9210   */\n      tag_202\n      jump\t// in\n    tag_257:\n        /* \"#utility.yul\":9271:9273   */\n      0x1f\n        /* \"#utility.yul\":9250:9265   */\n      add\n      not(0x1f)\n        /* \"#utility.yul\":9246:9275   */\n      and\n        /* \"#utility.yul\":9231:9276   */\n      swap2\n      swap1\n      swap2\n      add\n        /* \"#utility.yul\":9278:9280   */\n      0x40\n        /* \"#utility.yul\":9227:9281   */\n      add\n      swap3\n        /* \"#utility.yul\":8891:9287   */\n      swap2\n      pop\n      pop\n      jump\t// out\n\n    auxdata: 0xa2646970667358221220f55bf4e7d96e47840cc07bf59f6d407342f1848d2003ca2861f6e6a0da77758d64736f6c63430008110033\n}\n",
    "bytecode": {
      "linkReferences": {},
      "object": "60a0604052600060015534801561001557600080fd5b5060405161118438038061118483398101604081905261003491610057565b6001600160a01b0316608052600080546001600160a01b03191633179055610087565b60006020828403121561006957600080fd5b81516001600160a01b038116811461008057600080fd5b9392505050565b6080516110bf6100c5600039600081816102390152818161028901528181610436015281816107750152818161083e01526109bf01526110bf6000f3fe608060405234801561001057600080fd5b50600436106100df5760003560e01c806389a78f1a1161008c578063adc92ac711610066578063adc92ac71461020e578063c90190f414610221578063ecd0c0c314610234578063efa1c4821461025b57600080fd5b806389a78f1a1461017b5780638da5cb5b1461019b5780638f1071b7146101ae57600080fd5b8063700eae73116100bd578063700eae73146101405780637250c2ef146101555780637bffdd5e1461016857600080fd5b806310fe7c48146100e457806315c6aee2146100f95780632ca8c6d314610129575b600080fd5b6100f76100f2366004610e46565b610270565b005b61010c610107366004610e46565b61049b565b6040516001600160a01b0390911681526020015b60405180910390f35b61013260015481565b604051908152602001610120565b6101486104c5565b6040516101209190610e5f565b6100f7610163366004610ed4565b6105e5565b6100f7610176366004610e46565b61070e565b610132610189366004610ef8565b60026020526000908152604090205481565b60005461010c906001600160a01b031681565b6101e96101bc366004610ef8565b6004602052600090815260409020805460019091015460ff82169161010090046001600160a01b03169083565b6040805193151584526001600160a01b03909216602084015290820152606001610120565b6100f761021c366004610e46565b6107d7565b6100f761022f366004610e46565b61089a565b61010c7f000000000000000000000000000000000000000000000000000000000000000081565b610263610a29565b6040516101209190610f21565b6040516370a0823160e01b8152336004820152819081907f00000000000000000000000000000000000000000000000000000000000000006001600160a01b0316906370a0823190602401602060405180830381865afa1580156102d8573d6000803e3d6000fd5b505050506040513d601f19601f820116820180604052508101906102fc9190610f6e565b10156103755760405162461bcd60e51b815260206004820152602560248201527f4f6e6c7920426574207769746820746f6b656e7320796f7520616c726561647960448201527f206861766500000000000000000000000000000000000000000000000000000060648201526084015b60405180910390fd5b336000818152600460205260408120805460017fffffffffffffffffffffff000000000000000000000000000000000000000000909116610100850217811782558082018690556003805480830182559084527fc2575a0e9e593c00f959f8c92f12db2869c3395a3b0502d05e2516446f71f85b0180547fffffffffffffffffffffffff00000000000000000000000000000000000000001690941790935582549092909161042383610f9d565b9091555061045e90506001600160a01b037f000000000000000000000000000000000000000000000000000000000000000016333086610a8b565b604051838152309033907fddf252ad1be2c89b69c2b068fc378daa952ba7f163c4a11628f55a4df523b3ef906020015b60405180910390a3505050565b600381815481106104ab57600080fd5b6000918252602090912001546001600160a01b0316905081565b6060600060015467ffffffffffffffff8111156104e4576104e4610fb6565b60405190808252806020026020018201604052801561052f57816020015b60408051606081018252600080825260208083018290529282015282526000199092019101816105025790505b5090506000805b6001548110156105dd573360009081526004602052604090205460ff16156105cb57336000908152600460209081526040918290208251606081018452815460ff81161515825261010090046001600160a01b031692810192909252600101549181019190915283518490849081106105b1576105b1610fcc565b602002602001018190525081806105c790610f9d565b9250505b806105d581610f9d565b915050610536565b509092915050565b6000546001600160a01b0316331461063f5760405162461bcd60e51b815260206004820152601560248201527f596f7520617265206e6f7420746865206f776e65720000000000000000000000604482015260640161036c565b60005b60035481101561070a5760006003828154811061066157610661610fcc565b60009182526020808320909101546001600160a01b0316808352600490915260409091205490915060ff168015610696575082155b156106f7576001600160a01b0381166000818152600460209081526040808320805460ff19168155600190810193909355519182527f7e976ffc13bf9ee844465774d66a9a96742341bc3d134602b1bb702edbad48f6910160405180910390a25b508061070281610f9d565b915050610642565b5050565b6000546001600160a01b031633146107685760405162461bcd60e51b815260206004820152601560248201527f596f7520617265206e6f7420746865206f776e65720000000000000000000000604482015260640161036c565b61079c6001600160a01b037f0000000000000000000000000000000000000000000000000000000000000000163383610b29565b604051818152339030907fddf252ad1be2c89b69c2b068fc378daa952ba7f163c4a11628f55a4df523b3ef906020015b60405180910390a350565b6000546001600160a01b031633146108315760405162461bcd60e51b815260206004820152601560248201527f596f7520617265206e6f7420746865206f776e65720000000000000000000000604482015260640161036c565b6108666001600160a01b037f000000000000000000000000000000000000000000000000000000000000000016333084610a8b565b604051818152309033907fddf252ad1be2c89b69c2b068fc378daa952ba7f163c4a11628f55a4df523b3ef906020016107cc565b600181116109105760405162461bcd60e51b815260206004820152603360248201527f49207468696e6b2074686520737061636573686970206372617368656420626560448201527f666f726520796f7520636f756c64206a756d7000000000000000000000000000606482015260840161036c565b3360009081526004602052604090205460ff166109955760405162461bcd60e51b815260206004820152603d60248201527f596f752061637475616c6c7920686176652068616420746f20706c616365207460448201527f686520626574206265666f726520796f752063617368206f7574212121000000606482015260840161036c565b336000818152600460205260408120916109b0908490610b5e565b90506109e66001600160a01b037f0000000000000000000000000000000000000000000000000000000000000000163383610b29565b815460ff1916825560006001830155604051818152339030907fddf252ad1be2c89b69c2b068fc378daa952ba7f163c4a11628f55a4df523b3ef9060200161048e565b60606003805480602002602001604051908101604052809291908181526020018280548015610a8157602002820191906000526020600020905b81546001600160a01b03168152600190910190602001808311610a63575b5050505050905090565b6040516001600160a01b0380851660248301528316604482015260648101829052610b239085906323b872dd60e01b906084015b60408051601f198184030181529190526020810180517bffffffffffffffffffffffffffffffffffffffffffffffffffffffff167fffffffff0000000000000000000000000000000000000000000000000000000090931692909217909152610bb7565b50505050565b6040516001600160a01b038316602482015260448101829052610b5990849063a9059cbb60e01b90606401610abf565b505050565b6001600160a01b03811660009081526004602052604081205460ff16610b8657506000610bb1565b6001600160a01b038216600090815260046020526040812060010154610bad908590610fe2565b9150505b92915050565b6000610c0c826040518060400160405280602081526020017f5361666545524332303a206c6f772d6c6576656c2063616c6c206661696c6564815250856001600160a01b0316610c9f9092919063ffffffff16565b9050805160001480610c2d575080806020019051810190610c2d9190610ff9565b610b595760405162461bcd60e51b815260206004820152602a60248201527f5361666545524332303a204552433230206f7065726174696f6e20646964206e60448201527f6f74207375636365656400000000000000000000000000000000000000000000606482015260840161036c565b6060610cae8484600085610cb6565b949350505050565b606082471015610d2e5760405162461bcd60e51b815260206004820152602660248201527f416464726573733a20696e73756666696369656e742062616c616e636520666f60448201527f722063616c6c0000000000000000000000000000000000000000000000000000606482015260840161036c565b600080866001600160a01b03168587604051610d4a919061103a565b60006040518083038185875af1925050503d8060008114610d87576040519150601f19603f3d011682016040523d82523d6000602084013e610d8c565b606091505b5091509150610d9d87838387610da8565b979650505050505050565b60608315610e17578251600003610e10576001600160a01b0385163b610e105760405162461bcd60e51b815260206004820152601d60248201527f416464726573733a2063616c6c20746f206e6f6e2d636f6e7472616374000000604482015260640161036c565b5081610cae565b610cae8383815115610e2c5781518083602001fd5b8060405162461bcd60e51b815260040161036c9190611056565b600060208284031215610e5857600080fd5b5035919050565b602080825282518282018190526000919060409081850190868401855b82811015610eb6578151805115158552868101516001600160a01b0316878601528501518585015260609093019290850190600101610e7c565b5091979650505050505050565b8015158114610ed157600080fd5b50565b600060208284031215610ee657600080fd5b8135610ef181610ec3565b9392505050565b600060208284031215610f0a57600080fd5b81356001600160a01b0381168114610ef157600080fd5b6020808252825182820181905260009190848201906040850190845b81811015610f625783516001600160a01b031683529284019291840191600101610f3d565b50909695505050505050565b600060208284031215610f8057600080fd5b5051919050565b634e487b7160e01b600052601160045260246000fd5b600060018201610faf57610faf610f87565b5060010190565b634e487b7160e01b600052604160045260246000fd5b634e487b7160e01b600052603260045260246000fd5b8082028115828204841417610bb157610bb1610f87565b60006020828403121561100b57600080fd5b8151610ef181610ec3565b60005b83811015611031578181015183820152602001611019565b50506000910152565b6000825161104c818460208701611016565b9190910192915050565b6020815260008251806020840152611075816040850160208701611016565b601f01601f1916919091016040019291505056fea2646970667358221220f55bf4e7d96e47840cc07bf59f6d407342f1848d2003ca2861f6e6a0da77758d64736f6c63430008110033",
      "opcodes": "PUSH1 0xA0 PUSH1 0x40 MSTORE PUSH1 0x0 PUSH1 0x1 SSTORE CALLVALUE DUP1 ISZERO PUSH2 0x15 JUMPI PUSH1 0x0 DUP1 REVERT JUMPDEST POP PUSH1 0x40 MLOAD PUSH2 0x1184 CODESIZE SUB DUP1 PUSH2 0x1184 DUP4 CODECOPY DUP2 ADD PUSH1 0x40 DUP2 SWAP1 MSTORE PUSH2 0x34 SWAP2 PUSH2 0x57 JUMP JUMPDEST PUSH1 0x1 PUSH1 0x1 PUSH1 0xA0 SHL SUB AND PUSH1 0x80 MSTORE PUSH1 0x0 DUP1 SLOAD PUSH1 0x1 PUSH1 0x1 PUSH1 0xA0 SHL SUB NOT AND CALLER OR SWAP1 SSTORE PUSH2 0x87 JUMP JUMPDEST PUSH1 0x0 PUSH1 0x20 DUP3 DUP5 SUB SLT ISZERO PUSH2 0x69 JUMPI PUSH1 0x0 DUP1 REVERT JUMPDEST DUP2 MLOAD PUSH1 0x1 PUSH1 0x1 PUSH1 0xA0 SHL SUB DUP2 AND DUP2 EQ PUSH2 0x80 JUMPI PUSH1 0x0 DUP1 REVERT JUMPDEST SWAP4 SWAP3 POP POP POP JUMP JUMPDEST PUSH1 0x80 MLOAD PUSH2 0x10BF PUSH2 0xC5 PUSH1 0x0 CODECOPY PUSH1 0x0 DUP2 DUP2 PUSH2 0x239 ADD MSTORE DUP2 DUP2 PUSH2 0x289 ADD MSTORE DUP2 DUP2 PUSH2 0x436 ADD MSTORE DUP2 DUP2 PUSH2 0x775 ADD MSTORE DUP2 DUP2 PUSH2 0x83E ADD MSTORE PUSH2 0x9BF ADD MSTORE PUSH2 0x10BF PUSH1 0x0 RETURN INVALID PUSH1 0x80 PUSH1 0x40 MSTORE CALLVALUE DUP1 ISZERO PUSH2 0x10 JUMPI PUSH1 0x0 DUP1 REVERT JUMPDEST POP PUSH1 0x4 CALLDATASIZE LT PUSH2 0xDF JUMPI PUSH1 0x0 CALLDATALOAD PUSH1 0xE0 SHR DUP1 PUSH4 0x89A78F1A GT PUSH2 0x8C JUMPI DUP1 PUSH4 0xADC92AC7 GT PUSH2 0x66 JUMPI DUP1 PUSH4 0xADC92AC7 EQ PUSH2 0x20E JUMPI DUP1 PUSH4 0xC90190F4 EQ PUSH2 0x221 JUMPI DUP1 PUSH4 0xECD0C0C3 EQ PUSH2 0x234 JUMPI DUP1 PUSH4 0xEFA1C482 EQ PUSH2 0x25B JUMPI PUSH1 0x0 DUP1 REVERT JUMPDEST DUP1 PUSH4 0x89A78F1A EQ PUSH2 0x17B JUMPI DUP1 PUSH4 0x8DA5CB5B EQ PUSH2 0x19B JUMPI DUP1 PUSH4 0x8F1071B7 EQ PUSH2 0x1AE JUMPI PUSH1 0x0 DUP1 REVERT JUMPDEST DUP1 PUSH4 0x700EAE73 GT PUSH2 0xBD JUMPI DUP1 PUSH4 0x700EAE73 EQ PUSH2 0x140 JUMPI DUP1 PUSH4 0x7250C2EF EQ PUSH2 0x155 JUMPI DUP1 PUSH4 0x7BFFDD5E EQ PUSH2 0x168 JUMPI PUSH1 0x0 DUP1 REVERT JUMPDEST DUP1 PUSH4 0x10FE7C48 EQ PUSH2 0xE4 JUMPI DUP1 PUSH4 0x15C6AEE2 EQ PUSH2 0xF9 JUMPI DUP1 PUSH4 0x2CA8C6D3 EQ PUSH2 0x129 JUMPI JUMPDEST PUSH1 0x0 DUP1 REVERT JUMPDEST PUSH2 0xF7 PUSH2 0xF2 CALLDATASIZE PUSH1 0x4 PUSH2 0xE46 JUMP JUMPDEST PUSH2 0x270 JUMP JUMPDEST STOP JUMPDEST PUSH2 0x10C PUSH2 0x107 CALLDATASIZE PUSH1 0x4 PUSH2 0xE46 JUMP JUMPDEST PUSH2 0x49B JUMP JUMPDEST PUSH1 0x40 MLOAD PUSH1 0x1 PUSH1 0x1 PUSH1 0xA0 SHL SUB SWAP1 SWAP2 AND DUP2 MSTORE PUSH1 0x20 ADD JUMPDEST PUSH1 0x40 MLOAD DUP1 SWAP2 SUB SWAP1 RETURN JUMPDEST PUSH2 0x132 PUSH1 0x1 SLOAD DUP2 JUMP JUMPDEST PUSH1 0x40 MLOAD SWAP1 DUP2 MSTORE PUSH1 0x20 ADD PUSH2 0x120 JUMP JUMPDEST PUSH2 0x148 PUSH2 0x4C5 JUMP JUMPDEST PUSH1 0x40 MLOAD PUSH2 0x120 SWAP2 SWAP1 PUSH2 0xE5F JUMP JUMPDEST PUSH2 0xF7 PUSH2 0x163 CALLDATASIZE PUSH1 0x4 PUSH2 0xED4 JUMP JUMPDEST PUSH2 0x5E5 JUMP JUMPDEST PUSH2 0xF7 PUSH2 0x176 CALLDATASIZE PUSH1 0x4 PUSH2 0xE46 JUMP JUMPDEST PUSH2 0x70E JUMP JUMPDEST PUSH2 0x132 PUSH2 0x189 CALLDATASIZE PUSH1 0x4 PUSH2 0xEF8 JUMP JUMPDEST PUSH1 0x2 PUSH1 0x20 MSTORE PUSH1 0x0 SWAP1 DUP2 MSTORE PUSH1 0x40 SWAP1 KECCAK256 SLOAD DUP2 JUMP JUMPDEST PUSH1 0x0 SLOAD PUSH2 0x10C SWAP1 PUSH1 0x1 PUSH1 0x1 PUSH1 0xA0 SHL SUB AND DUP2 JUMP JUMPDEST PUSH2 0x1E9 PUSH2 0x1BC CALLDATASIZE PUSH1 0x4 PUSH2 0xEF8 JUMP JUMPDEST PUSH1 0x4 PUSH1 0x20 MSTORE PUSH1 0x0 SWAP1 DUP2 MSTORE PUSH1 0x40 SWAP1 KECCAK256 DUP1 SLOAD PUSH1 0x1 SWAP1 SWAP2 ADD SLOAD PUSH1 0xFF DUP3 AND SWAP2 PUSH2 0x100 SWAP1 DIV PUSH1 0x1 PUSH1 0x1 PUSH1 0xA0 SHL SUB AND SWAP1 DUP4 JUMP JUMPDEST PUSH1 0x40 DUP1 MLOAD SWAP4 ISZERO ISZERO DUP5 MSTORE PUSH1 0x1 PUSH1 0x1 PUSH1 0xA0 SHL SUB SWAP1 SWAP3 AND PUSH1 0x20 DUP5 ADD MSTORE SWAP1 DUP3 ADD MSTORE PUSH1 0x60 ADD PUSH2 0x120 JUMP JUMPDEST PUSH2 0xF7 PUSH2 0x21C CALLDATASIZE PUSH1 0x4 PUSH2 0xE46 JUMP JUMPDEST PUSH2 0x7D7 JUMP JUMPDEST PUSH2 0xF7 PUSH2 0x22F CALLDATASIZE PUSH1 0x4 PUSH2 0xE46 JUMP JUMPDEST PUSH2 0x89A JUMP JUMPDEST PUSH2 0x10C PUSH32 0x0 DUP2 JUMP JUMPDEST PUSH2 0x263 PUSH2 0xA29 JUMP JUMPDEST PUSH1 0x40 MLOAD PUSH2 0x120 SWAP2 SWAP1 PUSH2 0xF21 JUMP JUMPDEST PUSH1 0x40 MLOAD PUSH4 0x70A08231 PUSH1 0xE0 SHL DUP2 MSTORE CALLER PUSH1 0x4 DUP3 ADD MSTORE DUP2 SWAP1 DUP2 SWAP1 PUSH32 0x0 PUSH1 0x1 PUSH1 0x1 PUSH1 0xA0 SHL SUB AND SWAP1 PUSH4 0x70A08231 SWAP1 PUSH1 0x24 ADD PUSH1 0x20 PUSH1 0x40 MLOAD DUP1 DUP4 SUB DUP2 DUP7 GAS STATICCALL ISZERO DUP1 ISZERO PUSH2 0x2D8 JUMPI RETURNDATASIZE PUSH1 0x0 DUP1 RETURNDATACOPY RETURNDATASIZE PUSH1 0x0 REVERT JUMPDEST POP POP POP POP PUSH1 0x40 MLOAD RETURNDATASIZE PUSH1 0x1F NOT PUSH1 0x1F DUP3 ADD AND DUP3 ADD DUP1 PUSH1 0x40 MSTORE POP DUP2 ADD SWAP1 PUSH2 0x2FC SWAP2 SWAP1 PUSH2 0xF6E JUMP JUMPDEST LT ISZERO PUSH2 0x375 JUMPI PUSH1 0x40 MLOAD PUSH3 0x461BCD PUSH1 0xE5 SHL DUP2 MSTORE PUSH1 0x20 PUSH1 0x4 DUP3 ADD MSTORE PUSH1 0x25 PUSH1 0x24 DUP3 ADD MSTORE PUSH32 0x4F6E6C7920426574207769746820746F6B656E7320796F7520616C7265616479 PUSH1 0x44 DUP3 ADD MSTORE PUSH32 0x2068617665000000000000000000000000000000000000000000000000000000 PUSH1 0x64 DUP3 ADD MSTORE PUSH1 0x84 ADD JUMPDEST PUSH1 0x40 MLOAD DUP1 SWAP2 SUB SWAP1 REVERT JUMPDEST CALLER PUSH1 0x0 DUP2 DUP2 MSTORE PUSH1 0x4 PUSH1 0x20 MSTORE PUSH1 0x40 DUP2 KECCAK256 DUP1 SLOAD PUSH1 0x1 PUSH32 0xFFFFFFFFFFFFFFFFFFFFFF000000000000000000000000000000000000000000 SWAP1 SWAP2 AND PUSH2 0x100 DUP6 MUL OR DUP2 OR DUP3 SSTORE DUP1 DUP3 ADD DUP7 SWAP1 SSTORE PUSH1 0x3 DUP1 SLOAD DUP1 DUP4 ADD DUP3 SSTORE SWAP1 DUP5 MSTORE PUSH32 0xC2575A0E9E593C00F959F8C92F12DB2869C3395A3B0502D05E2516446F71F85B ADD DUP1 SLOAD PUSH32 0xFFFFFFFFFFFFFFFFFFFFFFFF0000000000000000000000000000000000000000 AND SWAP1 SWAP5 OR SWAP1 SWAP4 SSTORE DUP3 SLOAD SWAP1 SWAP3 SWAP1 SWAP2 PUSH2 0x423 DUP4 PUSH2 0xF9D JUMP JUMPDEST SWAP1 SWAP2 SSTORE POP PUSH2 0x45E SWAP1 POP PUSH1 0x1 PUSH1 0x1 PUSH1 0xA0 SHL SUB PUSH32 0x0 AND CALLER ADDRESS DUP7 PUSH2 0xA8B JUMP JUMPDEST PUSH1 0x40 MLOAD DUP4 DUP2 MSTORE ADDRESS SWAP1 CALLER SWAP1 PUSH32 0xDDF252AD1BE2C89B69C2B068FC378DAA952BA7F163C4A11628F55A4DF523B3EF SWAP1 PUSH1 0x20 ADD JUMPDEST PUSH1 0x40 MLOAD DUP1 SWAP2 SUB SWAP1 LOG3 POP POP POP JUMP JUMPDEST PUSH1 0x3 DUP2 DUP2 SLOAD DUP2 LT PUSH2 0x4AB JUMPI PUSH1 0x0 DUP1 REVERT JUMPDEST PUSH1 0x0 SWAP2 DUP3 MSTORE PUSH1 0x20 SWAP1 SWAP2 KECCAK256 ADD SLOAD PUSH1 0x1 PUSH1 0x1 PUSH1 0xA0 SHL SUB AND SWAP1 POP DUP2 JUMP JUMPDEST PUSH1 0x60 PUSH1 0x0 PUSH1 0x1 SLOAD PUSH8 0xFFFFFFFFFFFFFFFF DUP2 GT ISZERO PUSH2 0x4E4 JUMPI PUSH2 0x4E4 PUSH2 0xFB6 JUMP JUMPDEST PUSH1 0x40 MLOAD SWAP1 DUP1 DUP3 MSTORE DUP1 PUSH1 0x20 MUL PUSH1 0x20 ADD DUP3 ADD PUSH1 0x40 MSTORE DUP1 ISZERO PUSH2 0x52F JUMPI DUP2 PUSH1 0x20 ADD JUMPDEST PUSH1 0x40 DUP1 MLOAD PUSH1 0x60 DUP2 ADD DUP3 MSTORE PUSH1 0x0 DUP1 DUP3 MSTORE PUSH1 0x20 DUP1 DUP4 ADD DUP3 SWAP1 MSTORE SWAP3 DUP3 ADD MSTORE DUP3 MSTORE PUSH1 0x0 NOT SWAP1 SWAP3 ADD SWAP2 ADD DUP2 PUSH2 0x502 JUMPI SWAP1 POP JUMPDEST POP SWAP1 POP PUSH1 0x0 DUP1 JUMPDEST PUSH1 0x1 SLOAD DUP2 LT ISZERO PUSH2 0x5DD JUMPI CALLER PUSH1 0x0 SWAP1 DUP2 MSTORE PUSH1 0x4 PUSH1 0x20 MSTORE PUSH1 0x40 SWAP1 KECCAK256 SLOAD PUSH1 0xFF AND ISZERO PUSH2 0x5CB JUMPI CALLER PUSH1 0x0 SWAP1 DUP2 MSTORE PUSH1 0x4 PUSH1 0x20 SWAP1 DUP2 MSTORE PUSH1 0x40 SWAP2 DUP3 SWAP1 KECCAK256 DUP3 MLOAD PUSH1 0x60 DUP2 ADD DUP5 MSTORE DUP2 SLOAD PUSH1 0xFF DUP2 AND ISZERO ISZERO DUP3 MSTORE PUSH2 0x100 SWAP1 DIV PUSH1 0x1 PUSH1 0x1 PUSH1 0xA0 SHL SUB AND SWAP3 DUP2 ADD SWAP3 SWAP1 SWAP3 MSTORE PUSH1 0x1 ADD SLOAD SWAP2 DUP2 ADD SWAP2 SWAP1 SWAP2 MSTORE DUP4 MLOAD DUP5 SWAP1 DUP5 SWAP1 DUP2 LT PUSH2 0x5B1 JUMPI PUSH2 0x5B1 PUSH2 0xFCC JUMP JUMPDEST PUSH1 0x20 MUL PUSH1 0x20 ADD ADD DUP2 SWAP1 MSTORE POP DUP2 DUP1 PUSH2 0x5C7 SWAP1 PUSH2 0xF9D JUMP JUMPDEST SWAP3 POP POP JUMPDEST DUP1 PUSH2 0x5D5 DUP2 PUSH2 0xF9D JUMP JUMPDEST SWAP2 POP POP PUSH2 0x536 JUMP JUMPDEST POP SWAP1 SWAP3 SWAP2 POP POP JUMP JUMPDEST PUSH1 0x0 SLOAD PUSH1 0x1 PUSH1 0x1 PUSH1 0xA0 SHL SUB AND CALLER EQ PUSH2 0x63F JUMPI PUSH1 0x40 MLOAD PUSH3 0x461BCD PUSH1 0xE5 SHL DUP2 MSTORE PUSH1 0x20 PUSH1 0x4 DUP3 ADD MSTORE PUSH1 0x15 PUSH1 0x24 DUP3 ADD MSTORE PUSH32 0x596F7520617265206E6F7420746865206F776E65720000000000000000000000 PUSH1 0x44 DUP3 ADD MSTORE PUSH1 0x64 ADD PUSH2 0x36C JUMP JUMPDEST PUSH1 0x0 JUMPDEST PUSH1 0x3 SLOAD DUP2 LT ISZERO PUSH2 0x70A JUMPI PUSH1 0x0 PUSH1 0x3 DUP3 DUP2 SLOAD DUP2 LT PUSH2 0x661 JUMPI PUSH2 0x661 PUSH2 0xFCC JUMP JUMPDEST PUSH1 0x0 SWAP2 DUP3 MSTORE PUSH1 0x20 DUP1 DUP4 KECCAK256 SWAP1 SWAP2 ADD SLOAD PUSH1 0x1 PUSH1 0x1 PUSH1 0xA0 SHL SUB AND DUP1 DUP4 MSTORE PUSH1 0x4 SWAP1 SWAP2 MSTORE PUSH1 0x40 SWAP1 SWAP2 KECCAK256 SLOAD SWAP1 SWAP2 POP PUSH1 0xFF AND DUP1 ISZERO PUSH2 0x696 JUMPI POP DUP3 ISZERO JUMPDEST ISZERO PUSH2 0x6F7 JUMPI PUSH1 0x1 PUSH1 0x1 PUSH1 0xA0 SHL SUB DUP2 AND PUSH1 0x0 DUP2 DUP2 MSTORE PUSH1 0x4 PUSH1 0x20 SWAP1 DUP2 MSTORE PUSH1 0x40 DUP1 DUP4 KECCAK256 DUP1 SLOAD PUSH1 0xFF NOT AND DUP2 SSTORE PUSH1 0x1 SWAP1 DUP2 ADD SWAP4 SWAP1 SWAP4 SSTORE MLOAD SWAP2 DUP3 MSTORE PUSH32 0x7E976FFC13BF9EE844465774D66A9A96742341BC3D134602B1BB702EDBAD48F6 SWAP2 ADD PUSH1 0x40 MLOAD DUP1 SWAP2 SUB SWAP1 LOG2 JUMPDEST POP DUP1 PUSH2 0x702 DUP2 PUSH2 0xF9D JUMP JUMPDEST SWAP2 POP POP PUSH2 0x642 JUMP JUMPDEST POP POP JUMP JUMPDEST PUSH1 0x0 SLOAD PUSH1 0x1 PUSH1 0x1 PUSH1 0xA0 SHL SUB AND CALLER EQ PUSH2 0x768 JUMPI PUSH1 0x40 MLOAD PUSH3 0x461BCD PUSH1 0xE5 SHL DUP2 MSTORE PUSH1 0x20 PUSH1 0x4 DUP3 ADD MSTORE PUSH1 0x15 PUSH1 0x24 DUP3 ADD MSTORE PUSH32 0x596F7520617265206E6F7420746865206F776E65720000000000000000000000 PUSH1 0x44 DUP3 ADD MSTORE PUSH1 0x64 ADD PUSH2 0x36C JUMP JUMPDEST PUSH2 0x79C PUSH1 0x1 PUSH1 0x1 PUSH1 0xA0 SHL SUB PUSH32 0x0 AND CALLER DUP4 PUSH2 0xB29 JUMP JUMPDEST PUSH1 0x40 MLOAD DUP2 DUP2 MSTORE CALLER SWAP1 ADDRESS SWAP1 PUSH32 0xDDF252AD1BE2C89B69C2B068FC378DAA952BA7F163C4A11628F55A4DF523B3EF SWAP1 PUSH1 0x20 ADD JUMPDEST PUSH1 0x40 MLOAD DUP1 SWAP2 SUB SWAP1 LOG3 POP JUMP JUMPDEST PUSH1 0x0 SLOAD PUSH1 0x1 PUSH1 0x1 PUSH1 0xA0 SHL SUB AND CALLER EQ PUSH2 0x831 JUMPI PUSH1 0x40 MLOAD PUSH3 0x461BCD PUSH1 0xE5 SHL DUP2 MSTORE PUSH1 0x20 PUSH1 0x4 DUP3 ADD MSTORE PUSH1 0x15 PUSH1 0x24 DUP3 ADD MSTORE PUSH32 0x596F7520617265206E6F7420746865206F776E65720000000000000000000000 PUSH1 0x44 DUP3 ADD MSTORE PUSH1 0x64 ADD PUSH2 0x36C JUMP JUMPDEST PUSH2 0x866 PUSH1 0x1 PUSH1 0x1 PUSH1 0xA0 SHL SUB PUSH32 0x0 AND CALLER ADDRESS DUP5 PUSH2 0xA8B JUMP JUMPDEST PUSH1 0x40 MLOAD DUP2 DUP2 MSTORE ADDRESS SWAP1 CALLER SWAP1 PUSH32 0xDDF252AD1BE2C89B69C2B068FC378DAA952BA7F163C4A11628F55A4DF523B3EF SWAP1 PUSH1 0x20 ADD PUSH2 0x7CC JUMP JUMPDEST PUSH1 0x1 DUP2 GT PUSH2 0x910 JUMPI PUSH1 0x40 MLOAD PUSH3 0x461BCD PUSH1 0xE5 SHL DUP2 MSTORE PUSH1 0x20 PUSH1 0x4 DUP3 ADD MSTORE PUSH1 0x33 PUSH1 0x24 DUP3 ADD MSTORE PUSH32 0x49207468696E6B20746865207370616365736869702063726173686564206265 PUSH1 0x44 DUP3 ADD MSTORE PUSH32 0x666F726520796F7520636F756C64206A756D7000000000000000000000000000 PUSH1 0x64 DUP3 ADD MSTORE PUSH1 0x84 ADD PUSH2 0x36C JUMP JUMPDEST CALLER PUSH1 0x0 SWAP1 DUP2 MSTORE PUSH1 0x4 PUSH1 0x20 MSTORE PUSH1 0x40 SWAP1 KECCAK256 SLOAD PUSH1 0xFF AND PUSH2 0x995 JUMPI PUSH1 0x40 MLOAD PUSH3 0x461BCD PUSH1 0xE5 SHL DUP2 MSTORE PUSH1 0x20 PUSH1 0x4 DUP3 ADD MSTORE PUSH1 0x3D PUSH1 0x24 DUP3 ADD MSTORE PUSH32 0x596F752061637475616C6C7920686176652068616420746F20706C6163652074 PUSH1 0x44 DUP3 ADD MSTORE PUSH32 0x686520626574206265666F726520796F752063617368206F7574212121000000 PUSH1 0x64 DUP3 ADD MSTORE PUSH1 0x84 ADD PUSH2 0x36C JUMP JUMPDEST CALLER PUSH1 0x0 DUP2 DUP2 MSTORE PUSH1 0x4 PUSH1 0x20 MSTORE PUSH1 0x40 DUP2 KECCAK256 SWAP2 PUSH2 0x9B0 SWAP1 DUP5 SWAP1 PUSH2 0xB5E JUMP JUMPDEST SWAP1 POP PUSH2 0x9E6 PUSH1 0x1 PUSH1 0x1 PUSH1 0xA0 SHL SUB PUSH32 0x0 AND CALLER DUP4 PUSH2 0xB29 JUMP JUMPDEST DUP2 SLOAD PUSH1 0xFF NOT AND DUP3 SSTORE PUSH1 0x0 PUSH1 0x1 DUP4 ADD SSTORE PUSH1 0x40 MLOAD DUP2 DUP2 MSTORE CALLER SWAP1 ADDRESS SWAP1 PUSH32 0xDDF252AD1BE2C89B69C2B068FC378DAA952BA7F163C4A11628F55A4DF523B3EF SWAP1 PUSH1 0x20 ADD PUSH2 0x48E JUMP JUMPDEST PUSH1 0x60 PUSH1 0x3 DUP1 SLOAD DUP1 PUSH1 0x20 MUL PUSH1 0x20 ADD PUSH1 0x40 MLOAD SWAP1 DUP2 ADD PUSH1 0x40 MSTORE DUP1 SWAP3 SWAP2 SWAP1 DUP2 DUP2 MSTORE PUSH1 0x20 ADD DUP3 DUP1 SLOAD DUP1 ISZERO PUSH2 0xA81 JUMPI PUSH1 0x20 MUL DUP3 ADD SWAP2 SWAP1 PUSH1 0x0 MSTORE PUSH1 0x20 PUSH1 0x0 KECCAK256 SWAP1 JUMPDEST DUP2 SLOAD PUSH1 0x1 PUSH1 0x1 PUSH1 0xA0 SHL SUB AND DUP2 MSTORE PUSH1 0x1 SWAP1 SWAP2 ADD SWAP1 PUSH1 0x20 ADD DUP1 DUP4 GT PUSH2 0xA63 JUMPI JUMPDEST POP POP POP POP POP SWAP1 POP SWAP1 JUMP JUMPDEST PUSH1 0x40 MLOAD PUSH1 0x1 PUSH1 0x1 PUSH1 0xA0 SHL SUB DUP1 DUP6 AND PUSH1 0x24 DUP4 ADD MSTORE DUP4 AND PUSH1 0x44 DUP3 ADD MSTORE PUSH1 0x64 DUP2 ADD DUP3 SWAP1 MSTORE PUSH2 0xB23 SWAP1 DUP6 SWAP1 PUSH4 0x23B872DD PUSH1 0xE0 SHL SWAP1 PUSH1 0x84 ADD JUMPDEST PUSH1 0x40 DUP1 MLOAD PUSH1 0x1F NOT DUP2 DUP5 SUB ADD DUP2 MSTORE SWAP2 SWAP1 MSTORE PUSH1 0x20 DUP2 ADD DUP1 MLOAD PUSH28 0xFFFFFFFFFFFFFFFFFFFFFFFFFFFFFFFFFFFFFFFFFFFFFFFFFFFFFFFF AND PUSH32 0xFFFFFFFF00000000000000000000000000000000000000000000000000000000 SWAP1 SWAP4 AND SWAP3 SWAP1 SWAP3 OR SWAP1 SWAP2 MSTORE PUSH2 0xBB7 JUMP JUMPDEST POP POP POP POP JUMP JUMPDEST PUSH1 0x40 MLOAD PUSH1 0x1 PUSH1 0x1 PUSH1 0xA0 SHL SUB DUP4 AND PUSH1 0x24 DUP3 ADD MSTORE PUSH1 0x44 DUP2 ADD DUP3 SWAP1 MSTORE PUSH2 0xB59 SWAP1 DUP5 SWAP1 PUSH4 0xA9059CBB PUSH1 0xE0 SHL SWAP1 PUSH1 0x64 ADD PUSH2 0xABF JUMP JUMPDEST POP POP POP JUMP JUMPDEST PUSH1 0x1 PUSH1 0x1 PUSH1 0xA0 SHL SUB DUP2 AND PUSH1 0x0 SWAP1 DUP2 MSTORE PUSH1 0x4 PUSH1 0x20 MSTORE PUSH1 0x40 DUP2 KECCAK256 SLOAD PUSH1 0xFF AND PUSH2 0xB86 JUMPI POP PUSH1 0x0 PUSH2 0xBB1 JUMP JUMPDEST PUSH1 0x1 PUSH1 0x1 PUSH1 0xA0 SHL SUB DUP3 AND PUSH1 0x0 SWAP1 DUP2 MSTORE PUSH1 0x4 PUSH1 0x20 MSTORE PUSH1 0x40 DUP2 KECCAK256 PUSH1 0x1 ADD SLOAD PUSH2 0xBAD SWAP1 DUP6 SWAP1 PUSH2 0xFE2 JUMP JUMPDEST SWAP2 POP POP JUMPDEST SWAP3 SWAP2 POP POP JUMP JUMPDEST PUSH1 0x0 PUSH2 0xC0C DUP3 PUSH1 0x40 MLOAD DUP1 PUSH1 0x40 ADD PUSH1 0x40 MSTORE DUP1 PUSH1 0x20 DUP2 MSTORE PUSH1 0x20 ADD PUSH32 0x5361666545524332303A206C6F772D6C6576656C2063616C6C206661696C6564 DUP2 MSTORE POP DUP6 PUSH1 0x1 PUSH1 0x1 PUSH1 0xA0 SHL SUB AND PUSH2 0xC9F SWAP1 SWAP3 SWAP2 SWAP1 PUSH4 0xFFFFFFFF AND JUMP JUMPDEST SWAP1 POP DUP1 MLOAD PUSH1 0x0 EQ DUP1 PUSH2 0xC2D JUMPI POP DUP1 DUP1 PUSH1 0x20 ADD SWAP1 MLOAD DUP2 ADD SWAP1 PUSH2 0xC2D SWAP2 SWAP1 PUSH2 0xFF9 JUMP JUMPDEST PUSH2 0xB59 JUMPI PUSH1 0x40 MLOAD PUSH3 0x461BCD PUSH1 0xE5 SHL DUP2 MSTORE PUSH1 0x20 PUSH1 0x4 DUP3 ADD MSTORE PUSH1 0x2A PUSH1 0x24 DUP3 ADD MSTORE PUSH32 0x5361666545524332303A204552433230206F7065726174696F6E20646964206E PUSH1 0x44 DUP3 ADD MSTORE PUSH32 0x6F74207375636365656400000000000000000000000000000000000000000000 PUSH1 0x64 DUP3 ADD MSTORE PUSH1 0x84 ADD PUSH2 0x36C JUMP JUMPDEST PUSH1 0x60 PUSH2 0xCAE DUP5 DUP5 PUSH1 0x0 DUP6 PUSH2 0xCB6 JUMP JUMPDEST SWAP5 SWAP4 POP POP POP POP JUMP JUMPDEST PUSH1 0x60 DUP3 SELFBALANCE LT ISZERO PUSH2 0xD2E JUMPI PUSH1 0x40 MLOAD PUSH3 0x461BCD PUSH1 0xE5 SHL DUP2 MSTORE PUSH1 0x20 PUSH1 0x4 DUP3 ADD MSTORE PUSH1 0x26 PUSH1 0x24 DUP3 ADD MSTORE PUSH32 0x416464726573733A20696E73756666696369656E742062616C616E636520666F PUSH1 0x44 DUP3 ADD MSTORE PUSH32 0x722063616C6C0000000000000000000000000000000000000000000000000000 PUSH1 0x64 DUP3 ADD MSTORE PUSH1 0x84 ADD PUSH2 0x36C JUMP JUMPDEST PUSH1 0x0 DUP1 DUP7 PUSH1 0x1 PUSH1 0x1 PUSH1 0xA0 SHL SUB AND DUP6 DUP8 PUSH1 0x40 MLOAD PUSH2 0xD4A SWAP2 SWAP1 PUSH2 0x103A JUMP JUMPDEST PUSH1 0x0 PUSH1 0x40 MLOAD DUP1 DUP4 SUB DUP2 DUP6 DUP8 GAS CALL SWAP3 POP POP POP RETURNDATASIZE DUP1 PUSH1 0x0 DUP2 EQ PUSH2 0xD87 JUMPI PUSH1 0x40 MLOAD SWAP2 POP PUSH1 0x1F NOT PUSH1 0x3F RETURNDATASIZE ADD AND DUP3 ADD PUSH1 0x40 MSTORE RETURNDATASIZE DUP3 MSTORE RETURNDATASIZE PUSH1 0x0 PUSH1 0x20 DUP5 ADD RETURNDATACOPY PUSH2 0xD8C JUMP JUMPDEST PUSH1 0x60 SWAP2 POP JUMPDEST POP SWAP2 POP SWAP2 POP PUSH2 0xD9D DUP8 DUP4 DUP4 DUP8 PUSH2 0xDA8 JUMP JUMPDEST SWAP8 SWAP7 POP POP POP POP POP POP POP JUMP JUMPDEST PUSH1 0x60 DUP4 ISZERO PUSH2 0xE17 JUMPI DUP3 MLOAD PUSH1 0x0 SUB PUSH2 0xE10 JUMPI PUSH1 0x1 PUSH1 0x1 PUSH1 0xA0 SHL SUB DUP6 AND EXTCODESIZE PUSH2 0xE10 JUMPI PUSH1 0x40 MLOAD PUSH3 0x461BCD PUSH1 0xE5 SHL DUP2 MSTORE PUSH1 0x20 PUSH1 0x4 DUP3 ADD MSTORE PUSH1 0x1D PUSH1 0x24 DUP3 ADD MSTORE PUSH32 0x416464726573733A2063616C6C20746F206E6F6E2D636F6E7472616374000000 PUSH1 0x44 DUP3 ADD MSTORE PUSH1 0x64 ADD PUSH2 0x36C JUMP JUMPDEST POP DUP2 PUSH2 0xCAE JUMP JUMPDEST PUSH2 0xCAE DUP4 DUP4 DUP2 MLOAD ISZERO PUSH2 0xE2C JUMPI DUP2 MLOAD DUP1 DUP4 PUSH1 0x20 ADD REVERT JUMPDEST DUP1 PUSH1 0x40 MLOAD PUSH3 0x461BCD PUSH1 0xE5 SHL DUP2 MSTORE PUSH1 0x4 ADD PUSH2 0x36C SWAP2 SWAP1 PUSH2 0x1056 JUMP JUMPDEST PUSH1 0x0 PUSH1 0x20 DUP3 DUP5 SUB SLT ISZERO PUSH2 0xE58 JUMPI PUSH1 0x0 DUP1 REVERT JUMPDEST POP CALLDATALOAD SWAP2 SWAP1 POP JUMP JUMPDEST PUSH1 0x20 DUP1 DUP3 MSTORE DUP3 MLOAD DUP3 DUP3 ADD DUP2 SWAP1 MSTORE PUSH1 0x0 SWAP2 SWAP1 PUSH1 0x40 SWAP1 DUP2 DUP6 ADD SWAP1 DUP7 DUP5 ADD DUP6 JUMPDEST DUP3 DUP2 LT ISZERO PUSH2 0xEB6 JUMPI DUP2 MLOAD DUP1 MLOAD ISZERO ISZERO DUP6 MSTORE DUP7 DUP2 ADD MLOAD PUSH1 0x1 PUSH1 0x1 PUSH1 0xA0 SHL SUB AND DUP8 DUP7 ADD MSTORE DUP6 ADD MLOAD DUP6 DUP6 ADD MSTORE PUSH1 0x60 SWAP1 SWAP4 ADD SWAP3 SWAP1 DUP6 ADD SWAP1 PUSH1 0x1 ADD PUSH2 0xE7C JUMP JUMPDEST POP SWAP2 SWAP8 SWAP7 POP POP POP POP POP POP POP JUMP JUMPDEST DUP1 ISZERO ISZERO DUP2 EQ PUSH2 0xED1 JUMPI PUSH1 0x0 DUP1 REVERT JUMPDEST POP JUMP JUMPDEST PUSH1 0x0 PUSH1 0x20 DUP3 DUP5 SUB SLT ISZERO PUSH2 0xEE6 JUMPI PUSH1 0x0 DUP1 REVERT JUMPDEST DUP2 CALLDATALOAD PUSH2 0xEF1 DUP2 PUSH2 0xEC3 JUMP JUMPDEST SWAP4 SWAP3 POP POP POP JUMP JUMPDEST PUSH1 0x0 PUSH1 0x20 DUP3 DUP5 SUB SLT ISZERO PUSH2 0xF0A JUMPI PUSH1 0x0 DUP1 REVERT JUMPDEST DUP2 CALLDATALOAD PUSH1 0x1 PUSH1 0x1 PUSH1 0xA0 SHL SUB DUP2 AND DUP2 EQ PUSH2 0xEF1 JUMPI PUSH1 0x0 DUP1 REVERT JUMPDEST PUSH1 0x20 DUP1 DUP3 MSTORE DUP3 MLOAD DUP3 DUP3 ADD DUP2 SWAP1 MSTORE PUSH1 0x0 SWAP2 SWAP1 DUP5 DUP3 ADD SWAP1 PUSH1 0x40 DUP6 ADD SWAP1 DUP5 JUMPDEST DUP2 DUP2 LT ISZERO PUSH2 0xF62 JUMPI DUP4 MLOAD PUSH1 0x1 PUSH1 0x1 PUSH1 0xA0 SHL SUB AND DUP4 MSTORE SWAP3 DUP5 ADD SWAP3 SWAP2 DUP5 ADD SWAP2 PUSH1 0x1 ADD PUSH2 0xF3D JUMP JUMPDEST POP SWAP1 SWAP7 SWAP6 POP POP POP POP POP POP JUMP JUMPDEST PUSH1 0x0 PUSH1 0x20 DUP3 DUP5 SUB SLT ISZERO PUSH2 0xF80 JUMPI PUSH1 0x0 DUP1 REVERT JUMPDEST POP MLOAD SWAP2 SWAP1 POP JUMP JUMPDEST PUSH4 0x4E487B71 PUSH1 0xE0 SHL PUSH1 0x0 MSTORE PUSH1 0x11 PUSH1 0x4 MSTORE PUSH1 0x24 PUSH1 0x0 REVERT JUMPDEST PUSH1 0x0 PUSH1 0x1 DUP3 ADD PUSH2 0xFAF JUMPI PUSH2 0xFAF PUSH2 0xF87 JUMP JUMPDEST POP PUSH1 0x1 ADD SWAP1 JUMP JUMPDEST PUSH4 0x4E487B71 PUSH1 0xE0 SHL PUSH1 0x0 MSTORE PUSH1 0x41 PUSH1 0x4 MSTORE PUSH1 0x24 PUSH1 0x0 REVERT JUMPDEST PUSH4 0x4E487B71 PUSH1 0xE0 SHL PUSH1 0x0 MSTORE PUSH1 0x32 PUSH1 0x4 MSTORE PUSH1 0x24 PUSH1 0x0 REVERT JUMPDEST DUP1 DUP3 MUL DUP2 ISZERO DUP3 DUP3 DIV DUP5 EQ OR PUSH2 0xBB1 JUMPI PUSH2 0xBB1 PUSH2 0xF87 JUMP JUMPDEST PUSH1 0x0 PUSH1 0x20 DUP3 DUP5 SUB SLT ISZERO PUSH2 0x100B JUMPI PUSH1 0x0 DUP1 REVERT JUMPDEST DUP2 MLOAD PUSH2 0xEF1 DUP2 PUSH2 0xEC3 JUMP JUMPDEST PUSH1 0x0 JUMPDEST DUP4 DUP2 LT ISZERO PUSH2 0x1031 JUMPI DUP2 DUP2 ADD MLOAD DUP4 DUP3 ADD MSTORE PUSH1 0x20 ADD PUSH2 0x1019 JUMP JUMPDEST POP POP PUSH1 0x0 SWAP2 ADD MSTORE JUMP JUMPDEST PUSH1 0x0 DUP3 MLOAD PUSH2 0x104C DUP2 DUP5 PUSH1 0x20 DUP8 ADD PUSH2 0x1016 JUMP JUMPDEST SWAP2 SWAP1 SWAP2 ADD SWAP3 SWAP2 POP POP JUMP JUMPDEST PUSH1 0x20 DUP2 MSTORE PUSH1 0x0 DUP3 MLOAD DUP1 PUSH1 0x20 DUP5 ADD MSTORE PUSH2 0x1075 DUP2 PUSH1 0x40 DUP6 ADD PUSH1 0x20 DUP8 ADD PUSH2 0x1016 JUMP JUMPDEST PUSH1 0x1F ADD PUSH1 0x1F NOT AND SWAP2 SWAP1 SWAP2 ADD PUSH1 0x40 ADD SWAP3 SWAP2 POP POP JUMP INVALID LOG2 PUSH5 0x6970667358 0x22 SLT KECCAK256 CREATE2 JUMPDEST DELEGATECALL 0xE7 0xD9 PUSH15 0x47840CC07BF59F6D407342F1848D20 SUB 0xCA 0x28 PUSH2 0xF6E6 LOG0 0xDA PUSH24 0x758D64736F6C634300081100330000000000000000000000 "
    },
    "gasEstimates": {
      "creation": {
        "codeDepositCost": "857400",
        "executionCost": "infinite",
        "totalCost": "infinite"
      },
      "external": {
        "_token()": "infinite",
        "activeBets(address)": "4773",
        "bets(address)": "2507",
        "cashOutFromBet(uint256)": "infinite",
        "depositToGameReserves(uint256)": "infinite",
        "gameOver(bool)": "infinite",
        "getAllBets()": "infinite",
        "getAllPlayers()": "infinite",
        "numberOfBets()": "2363",
        "owner()": "2371",
        "placeBet(uint256)": "infinite",
        "playerAddresses(uint256)": "4649",
        "withdrawFromGameResrves(uint256)": "infinite"
      },
      "internal": {
        "getReward(uint256,address)": "infinite"
      }
    },
    "methodIdentifiers": {
      "_token()": "ecd0c0c3",
      "activeBets(address)": "8f1071b7",
      "bets(address)": "89a78f1a",
      "cashOutFromBet(uint256)": "c90190f4",
      "depositToGameReserves(uint256)": "adc92ac7",
      "gameOver(bool)": "7250c2ef",
      "getAllBets()": "700eae73",
      "getAllPlayers()": "efa1c482",
      "numberOfBets()": "2ca8c6d3",
      "owner()": "8da5cb5b",
      "placeBet(uint256)": "10fe7c48",
      "playerAddresses(uint256)": "15c6aee2",
      "withdrawFromGameResrves(uint256)": "7bffdd5e"
    }
  },
  "storageLayout": {
    "storage": [
      {
        "astId": 812,
        "contract": "CrashApp.sol:CrashApp",
        "label": "owner",
        "offset": 0,
        "slot": "0",
        "type": "t_address"
      },
      {
        "astId": 815,
        "contract": "CrashApp.sol:CrashApp",
        "label": "numberOfBets",
        "offset": 0,
        "slot": "1",
        "type": "t_uint256"
      },
      {
        "astId": 819,
        "contract": "CrashApp.sol:CrashApp",
        "label": "bets",
        "offset": 0,
        "slot": "2",
        "type": "t_mapping(t_address,t_uint256)"
      },
      {
        "astId": 829,
        "contract": "CrashApp.sol:CrashApp",
        "label": "playerAddresses",
        "offset": 0,
        "slot": "3",
        "type": "t_array(t_address)dyn_storage"
      },
      {
        "astId": 837,
        "contract": "CrashApp.sol:CrashApp",
        "label": "activeBets",
        "offset": 0,
        "slot": "4",
        "type": "t_mapping(t_address,t_struct(Player)826_storage)"
      }
    ],
    "types": {
      "t_address": {
        "encoding": "inplace",
        "label": "address",
        "numberOfBytes": "20"
      },
      "t_array(t_address)dyn_storage": {
        "base": "t_address",
        "encoding": "dynamic_array",
        "label": "address[]",
        "numberOfBytes": "32"
      },
      "t_bool": {
        "encoding": "inplace",
        "label": "bool",
        "numberOfBytes": "1"
      },
      "t_mapping(t_address,t_struct(Player)826_storage)": {
        "encoding": "mapping",
        "key": "t_address",
        "label": "mapping(address => struct CrashApp.Player)",
        "numberOfBytes": "32",
        "value": "t_struct(Player)826_storage"
      },
      "t_mapping(t_address,t_uint256)": {
        "encoding": "mapping",
        "key": "t_address",
        "label": "mapping(address => uint256)",
        "numberOfBytes": "32",
        "value": "t_uint256"
      },
      "t_struct(Player)826_storage": {
        "encoding": "inplace",
        "label": "struct CrashApp.Player",
        "members": [
          {
            "astId": 821,
            "contract": "CrashApp.sol:CrashApp",
            "label": "bet",
            "offset": 0,
            "slot": "0",
            "type": "t_bool"
          },
          {
            "astId": 823,
            "contract": "CrashApp.sol:CrashApp",
            "label": "player",
            "offset": 1,
            "slot": "0",
            "type": "t_address"
          },
          {
            "astId": 825,
            "contract": "CrashApp.sol:CrashApp",
            "label": "amount",
            "offset": 0,
            "slot": "1",
            "type": "t_uint256"
          }
        ],
        "numberOfBytes": "64"
      },
      "t_uint256": {
        "encoding": "inplace",
        "label": "uint256",
        "numberOfBytes": "32"
      }
    }
  },
  "userdoc": {
    "kind": "user",
    "methods": {},
    "version": 1
  }
}